{
  "address": "0x1f9d7C7c02405BD8CE2E40705F500078B098876a",
  "abi": [
    {
      "inputs": [
        {
          "internalType": "uint16",
          "name": "_protocolFee",
          "type": "uint16"
        },
        {
          "internalType": "address",
          "name": "_admin",
          "type": "address"
        },
        {
          "internalType": "address",
          "name": "_WETH",
          "type": "address"
        },
        {
          "internalType": "address",
          "name": "_revenueCollector",
          "type": "address"
        }
      ],
      "stateMutability": "nonpayable",
      "type": "constructor"
    },
    {
      "anonymous": false,
      "inputs": [
        {
          "indexed": true,
          "internalType": "address",
          "name": "collection",
          "type": "address"
        },
        {
          "indexed": false,
          "internalType": "address",
          "name": "collectionFeeCollector",
          "type": "address"
        },
        {
          "indexed": false,
          "internalType": "uint256",
          "name": "royaltyFees",
          "type": "uint256"
        }
      ],
      "name": "CollectionAdded",
      "type": "event"
    },
    {
      "anonymous": false,
      "inputs": [
        {
          "indexed": true,
          "internalType": "address",
          "name": "collection",
          "type": "address"
        }
      ],
      "name": "CollectionRemoved",
      "type": "event"
    },
    {
      "anonymous": false,
      "inputs": [
        {
          "indexed": true,
          "internalType": "address",
          "name": "collection",
          "type": "address"
        },
        {
          "indexed": false,
          "internalType": "address",
          "name": "collectionFeeCollector",
          "type": "address"
        },
        {
          "indexed": false,
          "internalType": "uint256",
          "name": "royaltyFees",
          "type": "uint256"
        }
      ],
      "name": "CollectionUpdated",
      "type": "event"
    },
    {
      "anonymous": false,
      "inputs": [
        {
          "indexed": true,
          "internalType": "address",
          "name": "collection",
          "type": "address"
        },
        {
          "indexed": false,
          "internalType": "enum DistantFinance.Status",
          "name": "status",
          "type": "uint8"
        },
        {
          "indexed": false,
          "internalType": "string",
          "name": "ipfs",
          "type": "string"
        }
      ],
      "name": "CollectionVerificationStatus",
      "type": "event"
    },
    {
      "anonymous": false,
      "inputs": [
        {
          "indexed": true,
          "internalType": "address",
          "name": "previousOwner",
          "type": "address"
        },
        {
          "indexed": true,
          "internalType": "address",
          "name": "newOwner",
          "type": "address"
        }
      ],
      "name": "OwnershipTransferred",
      "type": "event"
    },
    {
      "anonymous": false,
      "inputs": [
        {
          "indexed": false,
          "internalType": "address",
          "name": "account",
          "type": "address"
        }
      ],
      "name": "Paused",
      "type": "event"
    },
    {
      "anonymous": false,
      "inputs": [
        {
          "indexed": true,
          "internalType": "address",
          "name": "protocol",
          "type": "address"
        },
        {
          "indexed": false,
          "internalType": "string",
          "name": "name",
          "type": "string"
        },
        {
          "indexed": false,
          "internalType": "uint16",
          "name": "protocolFee",
          "type": "uint16"
        },
        {
          "indexed": false,
          "internalType": "uint16",
          "name": "securityFee",
          "type": "uint16"
        }
      ],
      "name": "ProtocolCreated",
      "type": "event"
    },
    {
      "anonymous": false,
      "inputs": [
        {
          "indexed": true,
          "internalType": "address",
          "name": "protocol",
          "type": "address"
        }
      ],
      "name": "ProtocolRemoved",
      "type": "event"
    },
    {
      "anonymous": false,
      "inputs": [
        {
          "indexed": true,
          "internalType": "address",
          "name": "account",
          "type": "address"
        },
        {
          "indexed": false,
          "internalType": "uint256",
          "name": "amount",
          "type": "uint256"
        }
      ],
      "name": "RevenueWithdrawn",
      "type": "event"
    },
    {
      "anonymous": false,
      "inputs": [
        {
          "indexed": false,
          "internalType": "address",
          "name": "account",
          "type": "address"
        }
      ],
      "name": "Unpaused",
      "type": "event"
    },
    {
      "anonymous": false,
      "inputs": [
        {
          "indexed": false,
          "internalType": "uint256",
          "name": "fees",
          "type": "uint256"
        }
      ],
      "name": "protocolFeeUpdated",
      "type": "event"
    },
    {
      "inputs": [
        {
          "internalType": "address",
          "name": "_collection",
          "type": "address"
        },
        {
          "internalType": "address",
          "name": "_collectionAddress",
          "type": "address"
        },
        {
          "internalType": "uint256",
          "name": "_royaltyFees",
          "type": "uint256"
        }
      ],
      "name": "addCollection",
      "outputs": [],
      "stateMutability": "nonpayable",
      "type": "function"
    },
    {
      "inputs": [
        {
          "internalType": "address",
          "name": "_protocol",
          "type": "address"
        },
        {
          "internalType": "string",
          "name": "_name",
          "type": "string"
        },
        {
          "internalType": "uint16",
          "name": "_protocolFee",
          "type": "uint16"
        },
        {
          "internalType": "uint16",
          "name": "_securityFee",
          "type": "uint16"
        }
      ],
      "name": "addProtocol",
      "outputs": [],
      "stateMutability": "nonpayable",
      "type": "function"
    },
    {
      "inputs": [],
      "name": "admin",
      "outputs": [
        {
          "internalType": "address",
          "name": "",
          "type": "address"
        }
      ],
      "stateMutability": "view",
      "type": "function"
    },
    {
      "inputs": [
        {
          "internalType": "address",
          "name": "_collection",
          "type": "address"
        },
        {
          "internalType": "uint256",
          "name": "_value",
          "type": "uint256"
        },
        {
          "internalType": "uint256",
          "name": "_protocolFee",
          "type": "uint256"
        }
      ],
      "name": "calculateFee",
      "outputs": [
        {
          "internalType": "uint256",
          "name": "amount",
          "type": "uint256"
        },
        {
          "internalType": "uint256",
          "name": "ProtocolFee",
          "type": "uint256"
        },
        {
          "internalType": "uint256",
          "name": "collectionFee",
          "type": "uint256"
        }
      ],
      "stateMutability": "view",
      "type": "function"
    },
    {
      "inputs": [
        {
          "internalType": "address",
          "name": "_account",
          "type": "address"
        }
      ],
      "name": "getAccountRevenue",
      "outputs": [
        {
          "internalType": "uint256",
          "name": "",
          "type": "uint256"
        }
      ],
      "stateMutability": "view",
      "type": "function"
    },
    {
      "inputs": [
        {
          "internalType": "address",
          "name": "_collection",
          "type": "address"
        }
      ],
      "name": "getCollectionData",
      "outputs": [
        {
          "components": [
            {
              "internalType": "address",
              "name": "collectionAddress",
              "type": "address"
            },
            {
              "internalType": "uint256",
              "name": "royaltyFees",
              "type": "uint256"
            },
            {
              "internalType": "enum DistantFinance.Status",
              "name": "status",
              "type": "uint8"
            }
          ],
          "internalType": "struct DistantFinance.Collection",
          "name": "",
          "type": "tuple"
        }
      ],
      "stateMutability": "view",
      "type": "function"
    },
    {
      "inputs": [],
      "name": "getSupportedCollections",
      "outputs": [
        {
          "internalType": "address[]",
          "name": "_supportedCollections",
          "type": "address[]"
        }
      ],
      "stateMutability": "view",
      "type": "function"
    },
    {
      "inputs": [
        {
          "internalType": "address",
          "name": "_address",
          "type": "address"
        }
      ],
      "name": "isSupportedProtocol",
      "outputs": [
        {
          "internalType": "bool",
          "name": "",
          "type": "bool"
        }
      ],
      "stateMutability": "view",
      "type": "function"
    },
    {
      "inputs": [],
      "name": "owner",
      "outputs": [
        {
          "internalType": "address",
          "name": "",
          "type": "address"
        }
      ],
      "stateMutability": "view",
      "type": "function"
    },
    {
      "inputs": [],
      "name": "pause",
      "outputs": [],
      "stateMutability": "nonpayable",
      "type": "function"
    },
    {
      "inputs": [],
      "name": "paused",
      "outputs": [
        {
          "internalType": "bool",
          "name": "",
          "type": "bool"
        }
      ],
      "stateMutability": "view",
      "type": "function"
    },
    {
      "inputs": [],
      "name": "protocolFee",
      "outputs": [
        {
          "internalType": "uint16",
          "name": "",
          "type": "uint16"
        }
      ],
      "stateMutability": "view",
      "type": "function"
    },
    {
      "inputs": [
        {
          "internalType": "address",
          "name": "_token",
          "type": "address"
        }
      ],
      "name": "recoverToken",
      "outputs": [],
      "stateMutability": "nonpayable",
      "type": "function"
    },
    {
      "inputs": [
        {
          "internalType": "address",
          "name": "_collection",
          "type": "address"
        }
      ],
      "name": "removeCollection",
      "outputs": [],
      "stateMutability": "nonpayable",
      "type": "function"
    },
    {
      "inputs": [
        {
          "internalType": "address",
          "name": "_protocol",
          "type": "address"
        }
      ],
      "name": "removeProtocol",
      "outputs": [],
      "stateMutability": "nonpayable",
      "type": "function"
    },
    {
      "inputs": [],
      "name": "renounceOwnership",
      "outputs": [],
      "stateMutability": "nonpayable",
      "type": "function"
    },
    {
      "inputs": [
        {
          "internalType": "address",
          "name": "newOwner",
          "type": "address"
        }
      ],
      "name": "transferOwnership",
      "outputs": [],
      "stateMutability": "nonpayable",
      "type": "function"
    },
    {
      "inputs": [],
      "name": "unpause",
      "outputs": [],
      "stateMutability": "nonpayable",
      "type": "function"
    },
    {
      "inputs": [
        {
          "internalType": "address",
          "name": "_newAdmin",
          "type": "address"
        }
      ],
      "name": "updateAdmin",
      "outputs": [],
      "stateMutability": "nonpayable",
      "type": "function"
    },
    {
      "inputs": [
        {
          "internalType": "address",
          "name": "_collection",
          "type": "address"
        },
        {
          "internalType": "address",
          "name": "_collectionAddress",
          "type": "address"
        },
        {
          "internalType": "uint256",
          "name": "_royaltyFees",
          "type": "uint256"
        }
      ],
      "name": "updateCollection",
      "outputs": [],
      "stateMutability": "nonpayable",
      "type": "function"
    },
    {
      "inputs": [
        {
          "internalType": "address",
          "name": "_newAdmin",
          "type": "address"
        }
      ],
      "name": "updateProxyAdmin",
      "outputs": [],
      "stateMutability": "nonpayable",
      "type": "function"
    },
    {
      "inputs": [
        {
          "internalType": "uint256",
          "name": "ProtocolFee",
          "type": "uint256"
        },
        {
          "internalType": "uint256",
          "name": "collectionFee",
          "type": "uint256"
        },
        {
          "internalType": "address",
          "name": "_collection",
          "type": "address"
        }
      ],
      "name": "updateRevenue",
      "outputs": [],
      "stateMutability": "nonpayable",
      "type": "function"
    },
    {
      "inputs": [
        {
          "internalType": "address",
          "name": "_newRevenueCollector",
          "type": "address"
        }
      ],
      "name": "updateRevenueCollector",
      "outputs": [],
      "stateMutability": "nonpayable",
      "type": "function"
    },
    {
      "inputs": [
        {
          "internalType": "uint16",
          "name": "_newprotocolFee",
          "type": "uint16"
        }
      ],
      "name": "updateprotocolFee",
      "outputs": [],
      "stateMutability": "nonpayable",
      "type": "function"
    },
    {
      "inputs": [
        {
          "internalType": "address",
          "name": "_collection",
          "type": "address"
        },
        {
          "internalType": "string",
          "name": "_ipfsHash",
          "type": "string"
        }
      ],
      "name": "verifyCollectionStatus",
      "outputs": [],
      "stateMutability": "nonpayable",
      "type": "function"
    },
    {
      "inputs": [],
      "name": "withdrawRevenue",
      "outputs": [],
      "stateMutability": "nonpayable",
      "type": "function"
    }
  ],
  "transactionHash": "0x0c8dadfd107cede4b5278fb416c32af677720931bd8ce99acb22c2475b281604",
  "args": [
    300,
    "0xe726c27385c740A9C3B026891BA0e366B344E318",
    "0x4200000000000000000000000000000000000006",
    "0xe726c27385c740A9C3B026891BA0e366B344E318"
  ],
  "numDeployments": 1,
  "solcInputHash": "78e09356f312fb5ef81b6240452c656d",
  "bytecode": "0x60a06040523480156200001157600080fd5b5060405162001f9238038062001f92833981016040819052620000349162000139565b6200003f33620000cc565b6000805460ff60a01b19169055600180556002805461ffff191661ffff8616179055620000693390565b6002805462010000600160b01b031916620100006001600160a01b0393841602179055600380546001600160a01b03199081168684161790915583821660805260048054909116918316919091179055620000c13390565b50505050506200019e565b600080546001600160a01b038381166001600160a01b0319831681178455604051919092169283917f8be0079c531659141344cd1fd0a4f28419497f9722a3daafe3b4186f6b6457e09190a35050565b80516001600160a01b03811681146200013457600080fd5b919050565b600080600080608085870312156200015057600080fd5b845161ffff811681146200016357600080fd5b935062000173602086016200011c565b925062000183604086016200011c565b915062000193606086016200011c565b905092959194509250565b608051611dd1620001c16000396000818161060f01526109260152611dd16000f3fe608060405234801561001057600080fd5b506004361061018e5760003560e01c80638da5cb5b116100de578063bb48cd3a11610097578063ee2d36dc11610071578063ee2d36dc146103a2578063f2fde38b146103b5578063f851a440146103c8578063ffa4b9c1146103e157600080fd5b8063bb48cd3a14610369578063bc231f5b1461037c578063e2f273bd1461038f57600080fd5b80638da5cb5b146102b35780638fe983bf146102d8578063969729ae1461030f5780639be65a6014610322578063a6745edb14610335578063b0e21e8a1461034857600080fd5b80635028d05a1161014b5780636f1ac2ce116101255780636f1ac2ce14610257578063715018a6146102775780637ed6a4061461027f5780638456cb59146102ab57600080fd5b80635028d05a1461021357806354bb0c1d146102265780635c975abb1461023957600080fd5b80630324ef9c146101935780630f3f9cd2146101c657806317dd5a48146101db57806318ff5768146101f05780633f4ba83a146102035780634f573cb21461020b575b600080fd5b6101a66101a1366004611887565b6103f4565b604080519384526020840192909252908201526060015b60405180910390f35b6101d96101d43660046118ba565b610467565b005b6101e3610489565b6040516101bd91906118ef565b6101d96101fe36600461193c565b61052b565b6101d961057c565b6101d9610596565b6101d961022136600461193c565b61067d565b6101d961023436600461193c565b610754565b600054600160a01b900460ff165b60405190151581526020016101bd565b61026a61026536600461193c565b610786565b6040516101bd919061198f565b6101d9610819565b61024761028d36600461193c565b6001600160a01b031660009081526009602052604090205460ff1690565b6101d961082b565b6000546001600160a01b03165b6040516001600160a01b0390911681526020016101bd565b6103016102e636600461193c565b6001600160a01b031660009081526007602052604090205490565b6040519081526020016101bd565b6101d961031d366004611a06565b610843565b6101d961033036600461193c565b610914565b6101d9610343366004611a59565b610b0d565b6002546103569061ffff1681565b60405161ffff90911681526020016101bd565b6101d961037736600461193c565b610d7d565b6101d961038a366004611aa7565b610daf565b6101d961039d36600461193c565b610e09565b6101d96103b0366004611ac2565b610e43565b6101d96103c336600461193c565b610ea4565b6002546102c0906201000090046001600160a01b031681565b6101d96103ef366004611a59565b610f1a565b600080806127106104058587611b4e565b61040f9190611b65565b6001600160a01b0387166000908152600860205260409020600101549092506127109061043c9087611b4e565b6104469190611b65565b90506104528183611b87565b61045c9086611b9a565b925093509350939050565b6104703361028d565b61047957600080fd5b610484838383611118565b505050565b60606000610497600561119a565b90508067ffffffffffffffff8111156104b2576104b2611bad565b6040519080825280602002602001820160405280156104db578160200160208202803683370190505b50915060005b81811015610526576104f46005826111aa565b83828151811061050657610506611bc3565b6001600160a01b03909216602092830291909101909101526001016104e1565b505090565b6105336111bd565b6001600160a01b038116600081815260096020526040808220805460ff19169055517f545a47f45f6f5fab1172cfde7faf3060e7d44c9d5808a2c80cfab52150b555339190a250565b610584611217565b61058c6111bd565b610594611267565b565b61059e6112bc565b6105a6611309565b33600090815260076020526040812054908190036105f95760405162461bcd60e51b815260206004820152600b60248201526a0726576656e7565203d20360ac1b60448201526064015b60405180910390fd5b3360008181526007602052604081205561063e907f00000000000000000000000000000000000000000000000000000000000000006001600160a01b03169083611362565b60405181815233907f86a5cc8fe9af9ae68fb50f62885307a7755a30cbd290131644377f0bd94a71819060200160405180910390a25061059460018055565b6106856112bc565b6002546201000090046001600160a01b0316336001600160a01b0316146106be5760405162461bcd60e51b81526004016105f090611bd9565b806106ca6005826113b4565b6106e65760405162461bcd60e51b81526004016105f090611c02565b6106f16005836113d6565b506001600160a01b03821660008181526008602052604080822080546001600160a01b031916815560018101839055600201805460ff19169055517fa0691bd707b2f65c33c8343d61c274df72c6b5007937dcfbc31aa5a0d0f6fe3c9190a25050565b61075c611217565b6107646111bd565b600480546001600160a01b0319166001600160a01b0392909216919091179055565b6107a760408051606081018252600080825260208201819052909182015290565b6001600160a01b03808316600090815260086020908152604091829020825160608101845281549094168452600180820154928501929092526002810154909284019160ff909116908111156107ff576107ff611957565b600181111561081057610810611957565b90525092915050565b6108216111bd565b61059460006113eb565b6108336112bc565b61083b6111bd565b61059461143b565b6002546201000090046001600160a01b0316336001600160a01b03161461087c5760405162461bcd60e51b81526004016105f090611bd9565b826108886005826113b4565b6108a45760405162461bcd60e51b81526004016105f090611c02565b6001600160a01b0384166000818152600860205260409081902060028101805460ff1916600190811790915591519092917f4ee5f8465521acf91d5b8064cdbad2cb9a9ecbe55514fd23918c6aeb9e59b20891610905919088908890611c62565b60405180910390a25050505050565b61091c611217565b6109246111bd565b7f00000000000000000000000000000000000000000000000000000000000000006001600160a01b0316816001600160a01b0316036109965760405162461bcd60e51b815260206004820152600e60248201526d21b0b73737ba103932b1b7bb32b960911b60448201526064016105f0565b6001600160a01b038116610a875747806109e75760405162461bcd60e51b8152602060048201526012602482015271045746865722062616c616e636520697320360741b60448201526064016105f0565b6002546040516000916201000090046001600160a01b03169083908381818185875af1925050503d8060008114610a3a576040519150601f19603f3d011682016040523d82523d6000602084013e610a3f565b606091505b50509050806104845760405162461bcd60e51b81526020600482015260146024820152732330b4b632b2103a379039b2b7321022ba3432b960611b60448201526064016105f0565b6040516370a0823160e01b815230600482015281906000906001600160a01b038316906370a0823190602401602060405180830381865afa158015610ad0573d6000803e3d6000fd5b505050506040513d601f19601f82011682018060405250810190610af49190611c8c565b90506104846001600160a01b0383163383611362565b50565b610b156112bc565b6002546201000090046001600160a01b0316336001600160a01b031614610b4e5760405162461bcd60e51b81526004016105f090611bd9565b610b596005846113b4565b15610b9a5760405162461bcd60e51b8152602060048201526011602482015270436f6c6c656374696f6e2065786973747360781b60448201526064016105f0565b6040516301ffc9a760e01b81526380ac58cd60e01b60048201526001600160a01b038416906301ffc9a790602401602060405180830381865afa158015610be5573d6000803e3d6000fd5b505050506040513d601f19601f82011682018060405250810190610c099190611ca5565b610c455760405162461bcd60e51b815260206004820152600d60248201526c1b9bdd081cdd5c1c1bdc9d1959609a1b60448201526064016105f0565b600254610c589061ffff166103e8611cc7565b61ffff16811115610c985760405162461bcd60e51b815260206004820152600a6024820152693332b2b99032b93937b960b11b60448201526064016105f0565b610ca360058461147e565b50604080516060810182526001600160a01b038416815260208101839052908101600090526001600160a01b03848116600090815260086020908152604091829020845181546001600160a01b0319169416939093178355830151600180840191909155908301516002830180549192909160ff1916908381811115610d2b57610d2b611957565b021790555050604080516001600160a01b03858116825260208201859052861692507f2a5e614d870607e6f8e37faa3d03029a584442d1ce60b3b292851a04452a95da910160405180910390a2505050565b610d85611217565b610d8d6111bd565b600380546001600160a01b0319166001600160a01b0392909216919091179055565b610db7611217565b610dbf6111bd565b6002805461ffff191661ffff83169081179091556040519081527fe9fdf34dbcbe57c72bf663fd28b9e46c66dfa8e41bb215746c2f4373641edc389060200160405180910390a150565b610e11611217565b610e196111bd565b600280546001600160a01b03909216620100000262010000600160b01b0319909216919091179055565b610e4b6111bd565b6001600160a01b03851660008181526009602052604090819020805460ff19166001179055517ff2a9f3954e120c6dde56df5a1f9c858cdf9f14504c0bacc9defc2d9a4ddd719b90610905908790879087908790611ce2565b610eac6111bd565b6001600160a01b038116610f115760405162461bcd60e51b815260206004820152602660248201527f4f776e61626c653a206e6577206f776e657220697320746865207a65726f206160448201526564647265737360d01b60648201526084016105f0565b610b0a816113eb565b610f226112bc565b82610f2e6005826113b4565b610f4a5760405162461bcd60e51b81526004016105f090611c02565b6002546201000090046001600160a01b0316336001600160a01b031614610f835760405162461bcd60e51b81526004016105f090611bd9565b600254610f969061ffff166103e8611cc7565b61ffff16821115610fd55760405162461bcd60e51b815260206004820152600960248201526868696768206665657360b81b60448201526064016105f0565b6001600160a01b0384811660009081526008602052604090205416331461103e5760405162461bcd60e51b815260206004820181905260248201527f4f6e6c7920436f6c6c656374696f6e2061646d696e2063616e2075706461746560448201526064016105f0565b604080516060810182526001600160a01b038516815260208101849052908101600090526001600160a01b03858116600090815260086020908152604091829020845181546001600160a01b0319169416939093178355830151600180840191909155908301516002830180549192909160ff19169083818111156110c5576110c5611957565b021790555050604080516001600160a01b03868116825260208201869052871692507f1e37bc437a6eef66beaf65888fcbb24a15cbac885105fc4b3cb99f3e1a90da21910160405180910390a250505050565b8115611160576001600160a01b0380821660009081526008602090815260408083205490931680835260079091529181208054859290611159908490611b87565b9091555050505b8215610484576004546001600160a01b031660009081526007602052604081208054859290611190908490611b87565b9091555050505050565b60006111a4825490565b92915050565b60006111b68383611493565b9392505050565b6000546001600160a01b031633146105945760405162461bcd60e51b815260206004820181905260248201527f4f776e61626c653a2063616c6c6572206973206e6f7420746865206f776e657260448201526064016105f0565b600054600160a01b900460ff166105945760405162461bcd60e51b815260206004820152601460248201527314185d5cd8589b194e881b9bdd081c185d5cd95960621b60448201526064016105f0565b61126f611217565b6000805460ff60a01b191690557f5db9ee0a495bf2e6ff9c91a7834c1ba4fdd244a5e8aa4e537bd38aeae4b073aa335b6040516001600160a01b03909116815260200160405180910390a1565b600054600160a01b900460ff16156105945760405162461bcd60e51b815260206004820152601060248201526f14185d5cd8589b194e881c185d5cd95960821b60448201526064016105f0565b60026001540361135b5760405162461bcd60e51b815260206004820152601f60248201527f5265656e7472616e637947756172643a207265656e7472616e742063616c6c0060448201526064016105f0565b6002600155565b604080516001600160a01b038416602482015260448082018490528251808303909101815260649091019091526020810180516001600160e01b031663a9059cbb60e01b1790526104849084906114bd565b6001600160a01b038116600090815260018301602052604081205415156111b6565b60006111b6836001600160a01b038416611592565b600080546001600160a01b038381166001600160a01b0319831681178455604051919092169283917f8be0079c531659141344cd1fd0a4f28419497f9722a3daafe3b4186f6b6457e09190a35050565b6114436112bc565b6000805460ff60a01b1916600160a01b1790557f62e78cea01bee320cd4e420270b5ea74000d11b0c9f74754ebdbfc544b05a25861129f3390565b60006111b6836001600160a01b03841661168c565b60008260000182815481106114aa576114aa611bc3565b9060005260206000200154905092915050565b6000611512826040518060400160405280602081526020017f5361666545524332303a206c6f772d6c6576656c2063616c6c206661696c6564815250856001600160a01b03166116db9092919063ffffffff16565b90508051600014806115335750808060200190518101906115339190611ca5565b6104845760405162461bcd60e51b815260206004820152602a60248201527f5361666545524332303a204552433230206f7065726174696f6e20646964206e6044820152691bdd081cdd58d8d9595960b21b60648201526084016105f0565b6000818152600183016020526040812054801561167b5760006115b6600183611b9a565b85549091506000906115ca90600190611b9a565b905081811461162f5760008660000182815481106115ea576115ea611bc3565b906000526020600020015490508087600001848154811061160d5761160d611bc3565b6000918252602080832090910192909255918252600188019052604090208390555b855486908061164057611640611d12565b6001900381819060005260206000200160009055905585600101600086815260200190815260200160002060009055600193505050506111a4565b60009150506111a4565b5092915050565b60008181526001830160205260408120546116d3575081546001818101845560008481526020808220909301849055845484825282860190935260409020919091556111a4565b5060006111a4565b60606116ea84846000856116f2565b949350505050565b6060824710156117535760405162461bcd60e51b815260206004820152602660248201527f416464726573733a20696e73756666696369656e742062616c616e636520666f6044820152651c8818d85b1b60d21b60648201526084016105f0565b600080866001600160a01b0316858760405161176f9190611d4c565b60006040518083038185875af1925050503d80600081146117ac576040519150601f19603f3d011682016040523d82523d6000602084013e6117b1565b606091505b50915091506117c2878383876117cd565b979650505050505050565b6060831561183c578251600003611835576001600160a01b0385163b6118355760405162461bcd60e51b815260206004820152601d60248201527f416464726573733a2063616c6c20746f206e6f6e2d636f6e747261637400000060448201526064016105f0565b50816116ea565b6116ea83838151156118515781518083602001fd5b8060405162461bcd60e51b81526004016105f09190611d68565b80356001600160a01b038116811461188257600080fd5b919050565b60008060006060848603121561189c57600080fd5b6118a58461186b565b95602085013595506040909401359392505050565b6000806000606084860312156118cf57600080fd5b83359250602084013591506118e66040850161186b565b90509250925092565b6020808252825182820181905260009190848201906040850190845b818110156119305783516001600160a01b03168352928401929184019160010161190b565b50909695505050505050565b60006020828403121561194e57600080fd5b6111b68261186b565b634e487b7160e01b600052602160045260246000fd5b6002811061198b57634e487b7160e01b600052602160045260246000fd5b9052565b81516001600160a01b031681526020808301519082015260408083015160608301916116859084018261196d565b60008083601f8401126119cf57600080fd5b50813567ffffffffffffffff8111156119e757600080fd5b6020830191508360208285010111156119ff57600080fd5b9250929050565b600080600060408486031215611a1b57600080fd5b611a248461186b565b9250602084013567ffffffffffffffff811115611a4057600080fd5b611a4c868287016119bd565b9497909650939450505050565b600080600060608486031215611a6e57600080fd5b611a778461186b565b9250611a856020850161186b565b9150604084013590509250925092565b803561ffff8116811461188257600080fd5b600060208284031215611ab957600080fd5b6111b682611a95565b600080600080600060808688031215611ada57600080fd5b611ae38661186b565b9450602086013567ffffffffffffffff811115611aff57600080fd5b611b0b888289016119bd565b9095509350611b1e905060408701611a95565b9150611b2c60608701611a95565b90509295509295909350565b634e487b7160e01b600052601160045260246000fd5b80820281158282048414176111a4576111a4611b38565b600082611b8257634e487b7160e01b600052601260045260246000fd5b500490565b808201808211156111a4576111a4611b38565b818103818111156111a4576111a4611b38565b634e487b7160e01b600052604160045260246000fd5b634e487b7160e01b600052603260045260246000fd5b6020808252600f908201526e21b0b63632b910109e9020b236b4b760891b604082015260600190565b60208082526018908201527f436f6c6c656374696f6e206e6f7420737570706f727465640000000000000000604082015260600190565b81835281816020850137506000828201602090810191909152601f909101601f19169091010190565b611c6c818561196d565b604060208201526000611c83604083018486611c39565b95945050505050565b600060208284031215611c9e57600080fd5b5051919050565b600060208284031215611cb757600080fd5b815180151581146111b657600080fd5b61ffff82811682821603908082111561168557611685611b38565b606081526000611cf6606083018688611c39565b61ffff9485166020840152929093166040909101529392505050565b634e487b7160e01b600052603160045260246000fd5b60005b83811015611d43578181015183820152602001611d2b565b50506000910152565b60008251611d5e818460208701611d28565b9190910192915050565b6020815260008251806020840152611d87816040850160208701611d28565b601f01601f1916919091016040019291505056fea2646970667358221220aef998a6b649392c937274dd5d63760d1009dbb8f9cf1fb4306fb4afe78ce13764736f6c63430008180033",
  "devdoc": {
    "events": {
      "Paused(address)": {
        "details": "Emitted when the pause is triggered by `account`."
      },
      "Unpaused(address)": {
        "details": "Emitted when the pause is lifted by `account`."
      }
    },
    "kind": "dev",
    "methods": {
      "addCollection(address,address,uint256)": {
        "params": {
          "_collection": "address of the collection",
          "_collectionAddress": "address of the royalty fees receiver",
          "_royaltyFees": "uint256 of the royalty fees"
        }
      },
      "constructor": {
        "params": {
          "_WETH": "address of the _WETH token",
          "_admin": "address of the proxy admin",
          "_protocolFee": "fee to be in counts of 100: 1% == 100, 10% = 1000",
          "_revenueCollector": "address of the revenue collector"
        }
      },
      "getCollectionData(address)": {
        "params": {
          "_collection": "address to check offer from"
        }
      },
      "owner()": {
        "details": "Returns the address of the current owner."
      },
      "paused()": {
        "details": "Returns true if the contract is paused, and false otherwise."
      },
      "recoverToken(address)": {
        "params": {
          "_token": "address of the token to recover"
        }
      },
      "removeCollection(address)": {
        "params": {
          "_collection": "address of the collection"
        }
      },
      "renounceOwnership()": {
        "details": "Leaves the contract without owner. It will not be possible to call `onlyOwner` functions. Can only be called by the current owner. NOTE: Renouncing ownership will leave the contract without an owner, thereby disabling any functionality that is only available to the owner."
      },
      "transferOwnership(address)": {
        "details": "Transfers ownership of the contract to a new account (`newOwner`). Can only be called by the current owner."
      },
      "updateAdmin(address)": {
        "params": {
          "_newAdmin": "address of the new admin"
        }
      },
      "updateCollection(address,address,uint256)": {
        "params": {
          "_collection": "address of the collection",
          "_collectionAddress": "address of the royalty fees receiver",
          "_royaltyFees": "uint256 of the royalty fees"
        }
      },
      "updateProxyAdmin(address)": {
        "params": {
          "_newAdmin": "address of the new admin"
        }
      },
      "updateRevenueCollector(address)": {
        "params": {
          "_newRevenueCollector": "address of the new revenue collector"
        }
      },
      "updateprotocolFee(uint16)": {
        "params": {
          "_newprotocolFee": "uint16 of the new protocol fee"
        }
      },
      "verifyCollectionStatus(address,string)": {
        "params": {
          "_collection": "address of the collection"
        }
      }
    },
    "version": 1
  },
  "userdoc": {
    "kind": "user",
    "methods": {
      "addCollection(address,address,uint256)": {
        "notice": "Add a collection to the Protocol"
      },
      "constructor": {
        "notice": "Constructor for the Protocol"
      },
      "getAccountRevenue(address)": {
        "notice": "All read functions"
      },
      "getCollectionData(address)": {
        "notice": "a public getter function to get a collection information from the collection mapping"
      },
      "getSupportedCollections()": {
        "notice": "Get all collections supported by the Protocol"
      },
      "recoverToken(address)": {
        "notice": "recover any ERC20 token sent to the contract"
      },
      "removeCollection(address)": {
        "notice": "Remove a collection from the Protocol"
      },
      "updateAdmin(address)": {
        "notice": "update the admin address"
      },
      "updateCollection(address,address,uint256)": {
        "notice": "Update a collection to the Protocol"
      },
      "updateProxyAdmin(address)": {
        "notice": "update the proxy admin address"
      },
      "updateRevenueCollector(address)": {
        "notice": "update the revenue collector address"
      },
      "updateprotocolFee(uint16)": {
        "notice": "update the protocol fee"
      },
      "verifyCollectionStatus(address,string)": {
        "notice": "Verify a collection from the Protocol"
      },
      "withdrawRevenue()": {
        "notice": "Withdraw revenue generated from the Protocol"
      }
    },
    "version": 1
  },
  "storageLayout": {
    "storage": [
      {
        "astId": 7,
        "contract": "contracts/Protocol.sol:DistantFinance",
        "label": "_owner",
        "offset": 0,
        "slot": "0",
        "type": "t_address"
      },
      {
        "astId": 130,
        "contract": "contracts/Protocol.sol:DistantFinance",
        "label": "_paused",
        "offset": 20,
        "slot": "0",
        "type": "t_bool"
      },
      {
        "astId": 231,
        "contract": "contracts/Protocol.sol:DistantFinance",
        "label": "_status",
        "offset": 0,
        "slot": "1",
        "type": "t_uint256"
      },
      {
        "astId": 2571,
        "contract": "contracts/Protocol.sol:DistantFinance",
        "label": "protocolFee",
        "offset": 0,
        "slot": "2",
        "type": "t_uint16"
      },
      {
        "astId": 2573,
        "contract": "contracts/Protocol.sol:DistantFinance",
        "label": "admin",
        "offset": 2,
        "slot": "2",
        "type": "t_address"
      },
      {
        "astId": 2581,
        "contract": "contracts/Protocol.sol:DistantFinance",
        "label": "proxyAdmin",
        "offset": 0,
        "slot": "3",
        "type": "t_address"
      },
      {
        "astId": 2583,
        "contract": "contracts/Protocol.sol:DistantFinance",
        "label": "revenueCollector",
        "offset": 0,
        "slot": "4",
        "type": "t_address"
      },
      {
        "astId": 2689,
        "contract": "contracts/Protocol.sol:DistantFinance",
        "label": "collections",
        "offset": 0,
        "slot": "5",
        "type": "t_struct(AddressSet)2246_storage"
      },
      {
        "astId": 2693,
        "contract": "contracts/Protocol.sol:DistantFinance",
        "label": "revenue",
        "offset": 0,
        "slot": "7",
        "type": "t_mapping(t_address,t_uint256)"
      },
      {
        "astId": 2698,
        "contract": "contracts/Protocol.sol:DistantFinance",
        "label": "collection",
        "offset": 0,
        "slot": "8",
        "type": "t_mapping(t_address,t_struct(Collection)2686_storage)"
      },
      {
        "astId": 2702,
        "contract": "contracts/Protocol.sol:DistantFinance",
        "label": "isProtocol",
        "offset": 0,
        "slot": "9",
        "type": "t_mapping(t_address,t_bool)"
      }
    ],
    "types": {
      "t_address": {
        "encoding": "inplace",
        "label": "address",
        "numberOfBytes": "20"
      },
      "t_array(t_bytes32)dyn_storage": {
        "base": "t_bytes32",
        "encoding": "dynamic_array",
        "label": "bytes32[]",
        "numberOfBytes": "32"
      },
      "t_bool": {
        "encoding": "inplace",
        "label": "bool",
        "numberOfBytes": "1"
      },
      "t_bytes32": {
        "encoding": "inplace",
        "label": "bytes32",
        "numberOfBytes": "32"
      },
      "t_enum(Status)2586": {
        "encoding": "inplace",
        "label": "enum DistantFinance.Status",
        "numberOfBytes": "1"
      },
      "t_mapping(t_address,t_bool)": {
        "encoding": "mapping",
        "key": "t_address",
        "label": "mapping(address => bool)",
        "numberOfBytes": "32",
        "value": "t_bool"
      },
      "t_mapping(t_address,t_struct(Collection)2686_storage)": {
        "encoding": "mapping",
        "key": "t_address",
        "label": "mapping(address => struct DistantFinance.Collection)",
        "numberOfBytes": "32",
        "value": "t_struct(Collection)2686_storage"
      },
      "t_mapping(t_address,t_uint256)": {
        "encoding": "mapping",
        "key": "t_address",
        "label": "mapping(address => uint256)",
        "numberOfBytes": "32",
        "value": "t_uint256"
      },
      "t_mapping(t_bytes32,t_uint256)": {
        "encoding": "mapping",
        "key": "t_bytes32",
        "label": "mapping(bytes32 => uint256)",
        "numberOfBytes": "32",
        "value": "t_uint256"
      },
      "t_struct(AddressSet)2246_storage": {
        "encoding": "inplace",
        "label": "struct EnumerableSet.AddressSet",
        "members": [
          {
            "astId": 2245,
            "contract": "contracts/Protocol.sol:DistantFinance",
            "label": "_inner",
            "offset": 0,
            "slot": "0",
            "type": "t_struct(Set)1931_storage"
          }
        ],
        "numberOfBytes": "64"
      },
      "t_struct(Collection)2686_storage": {
        "encoding": "inplace",
        "label": "struct DistantFinance.Collection",
        "members": [
          {
            "astId": 2680,
            "contract": "contracts/Protocol.sol:DistantFinance",
            "label": "collectionAddress",
            "offset": 0,
            "slot": "0",
            "type": "t_address"
          },
          {
            "astId": 2682,
            "contract": "contracts/Protocol.sol:DistantFinance",
            "label": "royaltyFees",
            "offset": 0,
            "slot": "1",
            "type": "t_uint256"
          },
          {
            "astId": 2685,
            "contract": "contracts/Protocol.sol:DistantFinance",
            "label": "status",
            "offset": 0,
            "slot": "2",
            "type": "t_enum(Status)2586"
          }
        ],
        "numberOfBytes": "96"
      },
      "t_struct(Set)1931_storage": {
        "encoding": "inplace",
        "label": "struct EnumerableSet.Set",
        "members": [
          {
            "astId": 1926,
            "contract": "contracts/Protocol.sol:DistantFinance",
            "label": "_values",
            "offset": 0,
            "slot": "0",
            "type": "t_array(t_bytes32)dyn_storage"
          },
          {
            "astId": 1930,
            "contract": "contracts/Protocol.sol:DistantFinance",
            "label": "_indexes",
            "offset": 0,
            "slot": "1",
            "type": "t_mapping(t_bytes32,t_uint256)"
          }
        ],
        "numberOfBytes": "64"
      },
      "t_uint16": {
        "encoding": "inplace",
        "label": "uint16",
        "numberOfBytes": "2"
      },
      "t_uint256": {
        "encoding": "inplace",
        "label": "uint256",
        "numberOfBytes": "32"
      }
    }
  }
}