{
  "address": "0xCd4b65980dc32861d384a499b49900b7CdD48632",
  "abi": [
    {
      "inputs": [
        {
          "internalType": "address",
          "name": "_TokenLocker",
          "type": "address"
        },
        {
          "internalType": "address",
          "name": "_WETH",
          "type": "address"
        },
        {
          "internalType": "address",
          "name": "_Protocol",
          "type": "address"
        }
      ],
      "stateMutability": "nonpayable",
      "type": "constructor"
    },
    {
      "inputs": [
        {
          "internalType": "bytes32",
          "name": "id",
          "type": "bytes32"
        }
      ],
      "name": "ActiveLoan",
      "type": "error"
    },
    {
      "inputs": [
        {
          "internalType": "bytes32",
          "name": "id",
          "type": "bytes32"
        }
      ],
      "name": "InactiveLoan",
      "type": "error"
    },
    {
      "inputs": [
        {
          "internalType": "uint16",
          "name": "invalidInterest",
          "type": "uint16"
        }
      ],
      "name": "InvalidInterest",
      "type": "error"
    },
    {
      "inputs": [
        {
          "internalType": "uint8",
          "name": "invalidPeriod",
          "type": "uint8"
        }
      ],
      "name": "InvalidPeriod",
      "type": "error"
    },
    {
      "inputs": [
        {
          "internalType": "bytes32",
          "name": "id",
          "type": "bytes32"
        }
      ],
      "name": "LoanContractActive",
      "type": "error"
    },
    {
      "inputs": [
        {
          "internalType": "bytes32",
          "name": "id",
          "type": "bytes32"
        }
      ],
      "name": "LoanContractInactive",
      "type": "error"
    },
    {
      "inputs": [
        {
          "internalType": "address",
          "name": "creator",
          "type": "address"
        }
      ],
      "name": "Unauthorized",
      "type": "error"
    },
    {
      "anonymous": false,
      "inputs": [
        {
          "indexed": true,
          "internalType": "bytes32",
          "name": "id",
          "type": "bytes32"
        },
        {
          "indexed": true,
          "internalType": "address",
          "name": "bidder",
          "type": "address"
        }
      ],
      "name": "BidClosed",
      "type": "event"
    },
    {
      "anonymous": false,
      "inputs": [
        {
          "indexed": true,
          "internalType": "bytes32",
          "name": "id",
          "type": "bytes32"
        },
        {
          "indexed": true,
          "internalType": "address",
          "name": "bidder",
          "type": "address"
        },
        {
          "indexed": false,
          "internalType": "uint16",
          "name": "proposedInterest",
          "type": "uint16"
        }
      ],
      "name": "BidOpened",
      "type": "event"
    },
    {
      "anonymous": false,
      "inputs": [
        {
          "indexed": true,
          "internalType": "bytes32",
          "name": "id",
          "type": "bytes32"
        },
        {
          "indexed": true,
          "internalType": "address",
          "name": "lender",
          "type": "address"
        },
        {
          "indexed": false,
          "internalType": "uint16",
          "name": "interest",
          "type": "uint16"
        },
        {
          "indexed": false,
          "internalType": "uint256",
          "name": "expiry",
          "type": "uint256"
        },
        {
          "indexed": false,
          "internalType": "uint256",
          "name": "checkPointBlock",
          "type": "uint256"
        }
      ],
      "name": "ContractActive",
      "type": "event"
    },
    {
      "anonymous": false,
      "inputs": [
        {
          "indexed": true,
          "internalType": "bytes32",
          "name": "id",
          "type": "bytes32"
        }
      ],
      "name": "ContractClosed",
      "type": "event"
    },
    {
      "anonymous": false,
      "inputs": [
        {
          "indexed": true,
          "internalType": "bytes32",
          "name": "id",
          "type": "bytes32"
        },
        {
          "indexed": true,
          "internalType": "address",
          "name": "borrower",
          "type": "address"
        },
        {
          "indexed": true,
          "internalType": "bytes32",
          "name": "lockId",
          "type": "bytes32"
        },
        {
          "indexed": false,
          "internalType": "uint256",
          "name": "amount",
          "type": "uint256"
        },
        {
          "indexed": false,
          "internalType": "uint16",
          "name": "interest",
          "type": "uint16"
        },
        {
          "indexed": false,
          "internalType": "uint256",
          "name": "expiry",
          "type": "uint256"
        }
      ],
      "name": "ContractOpened",
      "type": "event"
    },
    {
      "anonymous": false,
      "inputs": [
        {
          "indexed": true,
          "internalType": "bytes32",
          "name": "id",
          "type": "bytes32"
        }
      ],
      "name": "Liquidate",
      "type": "event"
    },
    {
      "anonymous": false,
      "inputs": [
        {
          "indexed": true,
          "internalType": "bytes32",
          "name": "id",
          "type": "bytes32"
        },
        {
          "indexed": false,
          "internalType": "uint256",
          "name": "repaidInterest",
          "type": "uint256"
        }
      ],
      "name": "LoanRepaid",
      "type": "event"
    },
    {
      "anonymous": false,
      "inputs": [
        {
          "indexed": true,
          "internalType": "bytes32",
          "name": "id",
          "type": "bytes32"
        },
        {
          "indexed": true,
          "internalType": "address",
          "name": "bidder",
          "type": "address"
        },
        {
          "indexed": false,
          "internalType": "uint256",
          "name": "amount",
          "type": "uint256"
        }
      ],
      "name": "LostBid",
      "type": "event"
    },
    {
      "anonymous": false,
      "inputs": [
        {
          "indexed": false,
          "internalType": "address",
          "name": "account",
          "type": "address"
        }
      ],
      "name": "Paused",
      "type": "event"
    },
    {
      "anonymous": false,
      "inputs": [
        {
          "indexed": false,
          "internalType": "address",
          "name": "account",
          "type": "address"
        }
      ],
      "name": "Unpaused",
      "type": "event"
    },
    {
      "anonymous": false,
      "inputs": [
        {
          "indexed": false,
          "internalType": "uint16",
          "name": "minInterest",
          "type": "uint16"
        },
        {
          "indexed": false,
          "internalType": "uint256",
          "name": "minBorrowAmount",
          "type": "uint256"
        }
      ],
      "name": "UpdateProtocolBorrowParameters",
      "type": "event"
    },
    {
      "anonymous": false,
      "inputs": [
        {
          "indexed": false,
          "internalType": "uint8",
          "name": "minExpiryDay",
          "type": "uint8"
        },
        {
          "indexed": false,
          "internalType": "uint8",
          "name": "maxExpiryDay",
          "type": "uint8"
        }
      ],
      "name": "UpdateProtocolDateParameters",
      "type": "event"
    },
    {
      "anonymous": false,
      "inputs": [
        {
          "indexed": false,
          "internalType": "uint16",
          "name": "securityFee",
          "type": "uint16"
        },
        {
          "indexed": false,
          "internalType": "uint16",
          "name": "protocolFee",
          "type": "uint16"
        }
      ],
      "name": "UpdateProtocolFees",
      "type": "event"
    },
    {
      "inputs": [
        {
          "internalType": "address",
          "name": "_bidder",
          "type": "address"
        },
        {
          "internalType": "bytes32",
          "name": "_id",
          "type": "bytes32"
        }
      ],
      "name": "acceptBid",
      "outputs": [],
      "stateMutability": "nonpayable",
      "type": "function"
    },
    {
      "inputs": [
        {
          "internalType": "uint16",
          "name": "_proposedInterest",
          "type": "uint16"
        },
        {
          "internalType": "bytes32",
          "name": "_id",
          "type": "bytes32"
        }
      ],
      "name": "bidInETH",
      "outputs": [],
      "stateMutability": "payable",
      "type": "function"
    },
    {
      "inputs": [
        {
          "internalType": "uint16",
          "name": "_proposedInterest",
          "type": "uint16"
        },
        {
          "internalType": "bytes32",
          "name": "_id",
          "type": "bytes32"
        }
      ],
      "name": "bidInWETH",
      "outputs": [],
      "stateMutability": "nonpayable",
      "type": "function"
    },
    {
      "inputs": [
        {
          "internalType": "bytes32",
          "name": "_id",
          "type": "bytes32"
        }
      ],
      "name": "cancelBid",
      "outputs": [],
      "stateMutability": "nonpayable",
      "type": "function"
    },
    {
      "inputs": [
        {
          "internalType": "bytes32",
          "name": "_id",
          "type": "bytes32"
        }
      ],
      "name": "closeContract",
      "outputs": [],
      "stateMutability": "nonpayable",
      "type": "function"
    },
    {
      "inputs": [],
      "name": "getAdmin",
      "outputs": [
        {
          "internalType": "address",
          "name": "",
          "type": "address"
        }
      ],
      "stateMutability": "view",
      "type": "function"
    },
    {
      "inputs": [
        {
          "internalType": "bytes32",
          "name": "_id",
          "type": "bytes32"
        }
      ],
      "name": "getInterest",
      "outputs": [
        {
          "internalType": "uint256",
          "name": "",
          "type": "uint256"
        }
      ],
      "stateMutability": "view",
      "type": "function"
    },
    {
      "inputs": [
        {
          "internalType": "bytes32",
          "name": "_id",
          "type": "bytes32"
        }
      ],
      "name": "getLoanData",
      "outputs": [
        {
          "internalType": "address",
          "name": "",
          "type": "address"
        },
        {
          "internalType": "address",
          "name": "",
          "type": "address"
        },
        {
          "internalType": "uint256",
          "name": "",
          "type": "uint256"
        },
        {
          "internalType": "uint256",
          "name": "",
          "type": "uint256"
        },
        {
          "internalType": "uint256",
          "name": "",
          "type": "uint256"
        },
        {
          "internalType": "bytes32",
          "name": "",
          "type": "bytes32"
        }
      ],
      "stateMutability": "view",
      "type": "function"
    },
    {
      "inputs": [
        {
          "internalType": "address",
          "name": "_bidder",
          "type": "address"
        }
      ],
      "name": "getLostBidsValue",
      "outputs": [
        {
          "internalType": "uint256",
          "name": "",
          "type": "uint256"
        }
      ],
      "stateMutability": "view",
      "type": "function"
    },
    {
      "inputs": [
        {
          "internalType": "address",
          "name": "_borrower",
          "type": "address"
        }
      ],
      "name": "getUserActiveLoanIds",
      "outputs": [
        {
          "internalType": "bytes32[]",
          "name": "ids",
          "type": "bytes32[]"
        }
      ],
      "stateMutability": "view",
      "type": "function"
    },
    {
      "inputs": [
        {
          "internalType": "address",
          "name": "_borrower",
          "type": "address"
        }
      ],
      "name": "getUserLoanIds",
      "outputs": [
        {
          "internalType": "bytes32[]",
          "name": "",
          "type": "bytes32[]"
        }
      ],
      "stateMutability": "view",
      "type": "function"
    },
    {
      "inputs": [
        {
          "internalType": "bytes32",
          "name": "_id",
          "type": "bytes32"
        }
      ],
      "name": "lendInETH",
      "outputs": [],
      "stateMutability": "payable",
      "type": "function"
    },
    {
      "inputs": [
        {
          "internalType": "bytes32",
          "name": "_id",
          "type": "bytes32"
        }
      ],
      "name": "lendInWETH",
      "outputs": [],
      "stateMutability": "nonpayable",
      "type": "function"
    },
    {
      "inputs": [
        {
          "internalType": "bytes32",
          "name": "_id",
          "type": "bytes32"
        }
      ],
      "name": "liquidate",
      "outputs": [],
      "stateMutability": "nonpayable",
      "type": "function"
    },
    {
      "inputs": [
        {
          "internalType": "address",
          "name": "_collection",
          "type": "address"
        },
        {
          "internalType": "uint256[]",
          "name": "_tokens",
          "type": "uint256[]"
        },
        {
          "internalType": "uint256",
          "name": "_amountToBorrow",
          "type": "uint256"
        },
        {
          "internalType": "uint8",
          "name": "_expiryInDays",
          "type": "uint8"
        },
        {
          "internalType": "uint16",
          "name": "_interestToPay",
          "type": "uint16"
        }
      ],
      "name": "openContract",
      "outputs": [],
      "stateMutability": "nonpayable",
      "type": "function"
    },
    {
      "inputs": [],
      "name": "pause",
      "outputs": [],
      "stateMutability": "nonpayable",
      "type": "function"
    },
    {
      "inputs": [],
      "name": "paused",
      "outputs": [
        {
          "internalType": "bool",
          "name": "",
          "type": "bool"
        }
      ],
      "stateMutability": "view",
      "type": "function"
    },
    {
      "inputs": [
        {
          "internalType": "address",
          "name": "_token",
          "type": "address"
        }
      ],
      "name": "recoverToken",
      "outputs": [],
      "stateMutability": "nonpayable",
      "type": "function"
    },
    {
      "inputs": [
        {
          "internalType": "bytes32",
          "name": "_id",
          "type": "bytes32"
        }
      ],
      "name": "repayLoan",
      "outputs": [],
      "stateMutability": "nonpayable",
      "type": "function"
    },
    {
      "inputs": [],
      "name": "unpause",
      "outputs": [],
      "stateMutability": "nonpayable",
      "type": "function"
    },
    {
      "inputs": [
        {
          "internalType": "address",
          "name": "_admin",
          "type": "address"
        }
      ],
      "name": "updateAdmin",
      "outputs": [],
      "stateMutability": "nonpayable",
      "type": "function"
    },
    {
      "inputs": [
        {
          "internalType": "uint8",
          "name": "_min",
          "type": "uint8"
        },
        {
          "internalType": "uint8",
          "name": "_max",
          "type": "uint8"
        }
      ],
      "name": "updateExpiryDays",
      "outputs": [],
      "stateMutability": "nonpayable",
      "type": "function"
    },
    {
      "inputs": [
        {
          "internalType": "uint16",
          "name": "_securityFee",
          "type": "uint16"
        },
        {
          "internalType": "uint16",
          "name": "_protocolFee",
          "type": "uint16"
        }
      ],
      "name": "updateFee",
      "outputs": [],
      "stateMutability": "nonpayable",
      "type": "function"
    },
    {
      "inputs": [
        {
          "internalType": "uint16",
          "name": "_minInterest",
          "type": "uint16"
        },
        {
          "internalType": "uint256",
          "name": "_minBorrowAmount",
          "type": "uint256"
        }
      ],
      "name": "updateInterestAndMinBorrowAmount",
      "outputs": [],
      "stateMutability": "nonpayable",
      "type": "function"
    },
    {
      "inputs": [
        {
          "internalType": "address",
          "name": "_Protocol",
          "type": "address"
        }
      ],
      "name": "updateProtocol",
      "outputs": [],
      "stateMutability": "nonpayable",
      "type": "function"
    },
    {
      "inputs": [
        {
          "internalType": "address",
          "name": "_TokenLocker",
          "type": "address"
        }
      ],
      "name": "updateTokenLocker",
      "outputs": [],
      "stateMutability": "nonpayable",
      "type": "function"
    },
    {
      "inputs": [],
      "name": "withdrawLostBids",
      "outputs": [],
      "stateMutability": "nonpayable",
      "type": "function"
    }
  ],
  "transactionHash": "0x6c2f7273f22fb697de3faa047e6d64168efea2cc3bd03ee47d718218f9870f89",
  "args": [
    "0xD80c83efc80Da4166Ab44848f3aaA0320A679E3f",
    "0x4200000000000000000000000000000000000006",
    "0x1f9d7C7c02405BD8CE2E40705F500078B098876a"
  ],
  "numDeployments": 2,
  "solcInputHash": "0eca44e0d9f0280e8fb431aca2c305c3",
  "bytecode": "0x60a060405260028054650b40e07d001960a31b65ffffffffffff60a01b1990911617905567016345785d8a00006003556004805461ffff191660641790553480156200004a57600080fd5b5060405162002f6f38038062002f6f8339810160408190526200006d9162000106565b6001600081905580546001600160a81b0319166101006001600160a01b038681169190910291909117909155600280546001600160a01b0319168383161790558216608052620000ba3390565b600460026101000a8154816001600160a01b0302191690836001600160a01b0316021790555050505062000150565b80516001600160a01b03811681146200010157600080fd5b919050565b6000806000606084860312156200011c57600080fd5b6200012784620000e9565b92506200013760208501620000e9565b91506200014760408501620000e9565b90509250925092565b608051612daf620001c0600039600081816107b801528181610872015281816109e401528181610de601528181610e9101528181610ebf01528181610f77015281816110ff015281816112e50152818161153f015281816119a101528181611d1c015261218b0152612daf6000f3fe60806040526004361061019c5760003560e01c80636e9960c3116100ec578063c4d2b1b31161008a578063dfcc8dcf11610064578063dfcc8dcf1461051f578063e2f273bd1461053f578063ee6831511461055f578063f9e67abe1461057f57600080fd5b8063c4d2b1b31461043f578063d9e83bf0146104df578063df7cec28146104ff57600080fd5b80637d1d04b0116100c65780637d1d04b0146103a35780638456cb59146103ea5780639be65a60146103ff5780639e70c91a1461041f57600080fd5b80636e9960c31461032c57806371468afd14610363578063727a573c1461038357600080fd5b80633f84210f1161015957806354b939121161013357806354b93912146102b65780635c975abb146102c957806361e5a71e146102ec57806368f6baa41461030c57600080fd5b80633f84210f1461026157806341e517e41461028157806351e03b051461029657600080fd5b80630a71096e146101a15780630d2d04b4146101c357806317fd56ba146101d6578063260baf5d1461020c578063283ad8ab1461022c5780633f4ba83a1461024c575b600080fd5b3480156101ad57600080fd5b506101c16101bc366004612951565b61059f565b005b6101c16101d1366004612981565b61081d565b3480156101e257600080fd5b506101f66101f13660046129c2565b610905565b60405161020391906129dd565b60405180910390f35b34801561021857600080fd5b506101c1610227366004612951565b61092f565b34801561023857600080fd5b506101c1610247366004612a32565b610a2f565b34801561025857600080fd5b506101c1610cf1565b34801561026d57600080fd5b506101c161027c366004612951565b610d2a565b34801561028d57600080fd5b506101c1610f45565b3480156102a257600080fd5b506101c16102b1366004612ae2565b610fb2565b6101c16102c4366004612951565b611047565b3480156102d557600080fd5b5060015460ff166040519015158152602001610203565b3480156102f857600080fd5b506101c1610307366004612afe565b611198565b34801561031857600080fd5b506101c1610327366004612981565b611294565b34801561033857600080fd5b506004546201000090046001600160a01b03166040516001600160a01b039091168152602001610203565b34801561036f57600080fd5b506101c161037e366004612981565b611325565b34801561038f57600080fd5b506101c161039e3660046129c2565b611468565b3480156103af57600080fd5b506103dc6103be3660046129c2565b6001600160a01b031660009081526006602052604090206001015490565b604051908152602001610203565b3480156103f657600080fd5b506101c16114d7565b34801561040b57600080fd5b506101c161041a3660046129c2565b61150e565b34801561042b57600080fd5b506101c161043a3660046129c2565b611737565b34801561044b57600080fd5b506104a761045a366004612951565b6000908152600560205260409020805460018201546002830154600384015460048501546009909501546001600160a01b03948516969490931694600160a01b90920461ffff1693909290565b604080516001600160a01b039788168152969095166020870152938501929092526060840152608083015260a082015260c001610203565b3480156104eb57600080fd5b506101c16104fa366004612b31565b6117ac565b34801561050b57600080fd5b506101c161051a366004612951565b611925565b34801561052b57600080fd5b506101c161053a366004612951565b611a07565b34801561054b57600080fd5b506101c161055a3660046129c2565b611ac0565b34801561056b57600080fd5b506103dc61057a366004612951565b611b37565b34801561058b57600080fd5b506101f661059a3660046129c2565b611b55565b6105a7611c1a565b600081815260056020526040902060018101548291906001600160a01b031633146105f857335b60405163472511eb60e11b81526001600160a01b0390911660048201526024015b60405180910390fd5b806004015442101561062057604051639dd8e45560e01b8152600481018390526024016105ef565b600083815260056020526040812060025460038201549192916127109161065391600160a01b90910461ffff1690612b71565b61065d9190612b88565b600283810154905491925060009161068b916001600160a01b0316908490600160b01b900461ffff16611c73565b600984015484546001600160a01b03166000908152600760205260409020919250906106b79088611dbe565b506000878152600560208190526040822080546001600160a01b0319908116825560018201805490911690556002810180546001600160b01b03191690556003810183905560048101839055908101829055906007820181818161071b828261291f565b5050600060099490940193909355505060015461010090046001600160a01b0316905063771b51d282336040516001600160e01b031960e085901b16815260048101929092526001600160a01b03166024820152604401600060405180830381600087803b15801561078c57600080fd5b505af11580156107a0573d6000803e3d6000fd5b505050506107df6107ae3390565b6001600160a01b037f0000000000000000000000000000000000000000000000000000000000000000169084611dca565b60405187907f49402ac80e80185fec1d9f8b8360275213386717f39afd886549219d1f0c17d390600090a250505050505061081a6001600055565b50565b610825611e2d565b61082d611c1a565b6000818152600560209081526040808320338452600681019092528220546003820154919261ffff90911691908290036108e9578034101561086e57600080fd5b60007f00000000000000000000000000000000000000000000000000000000000000009050806001600160a01b031663d0e30db0836040518263ffffffff1660e01b81526004016000604051808303818588803b1580156108ce57600080fd5b505af11580156108e2573d6000803e3d6000fd5b5050505050505b6108f4858585611e73565b5050506109016001600055565b5050565b6001600160a01b038116600090815260076020526040902060609061092990611fd0565b92915050565b610937611e2d565b61093f611c1a565b600081815260056020526040902080548291906001600160a01b031661097b5760405163304e04d560e21b8152600481018390526024016105ef565b60018101546001600160a01b0316156109aa57604051639dd8e45560e01b8152600481018390526024016105ef565b8054336001600160a01b03909116036109c357336105ce565b6000838152600560205260409020610a0d3360038301546001600160a01b037f00000000000000000000000000000000000000000000000000000000000000001691903090611fdd565b610a17818561201b565b610a228482336120f3565b50505061081a6001600055565b610a37611e2d565b610a3f611c1a565b828282600354831015610a5157600080fd5b60025460ff600160c01b9091048116908316108015610a7f575060025460ff600160c81b9091048116908316115b15610aa25760405163c75f14d960e01b815260ff831660048201526024016105ef565b60045461ffff908116908216108015610ac0575061271061ffff8216115b15610ae4576040516331d1010560e01b815261ffff821660048201526024016105ef565b600154604051636af5ccbd60e01b815260009161010090046001600160a01b031690636af5ccbd90610b22908d908d908d9087903390600401612baa565b6020604051808303816000875af1158015610b41573d6000803e3d6000fd5b505050506040513d601f19601f82011682018060405250810190610b659190612c06565b9050600033604080516001600160a01b039283166020820152918d16908201526060810189905260ff8816608082015261ffff871660a08201524260c082015260e00160408051808303601f19018152918152815160209283012060008181526005909352912090915060ff8816338260000160006101000a8154816001600160a01b0302191690836001600160a01b03160217905550878260020160146101000a81548161ffff021916908361ffff1602179055508982600301819055508082600401819055508382600901819055508c8260020160006101000a8154816001600160a01b0302191690836001600160a01b03160217905550610c8d8360076000610c6e3390565b6001600160a01b0316815260208101919091526040016000209061221a565b50604080518b815261ffff8a16602082015280820183905290518591339186917f43713658fa9d1ddcca12df9a9a1761502a130cfcfb8fa28e636a9b925d7b788e919081900360600190a450505050505050610ce96001600055565b505050505050565b610cf9612226565b6004546201000090046001600160a01b0316336001600160a01b031614610d2057336105ce565b610d2861226f565b565b610d32611c1a565b600081815260056020526040902080548291906001600160a01b0316610d6e5760405163304e04d560e21b8152600481018390526024016105ef565b80546001600160a01b03163314610d8557336105ce565b60018101546001600160a01b0316610db357604051637566075b60e01b8152600481018390526024016105ef565b600083815260056020526040812090610dcb826122c1565b60038301549091506000610ddf8284612c1f565b9050610e167f00000000000000000000000000000000000000000000000000000000000000006001600160a01b0316333084611fdd565b60025460009061271090610e3590600160a01b900461ffff1685612b71565b610e3f9190612b88565b6002868101549054919250600091610e6d916001600160a01b0316908790600160b01b900461ffff16611c73565b90506000610e7b8285612c32565b6001880154909150610eba906001600160a01b037f00000000000000000000000000000000000000000000000000000000000000008116911683611dca565b610eee7f00000000000000000000000000000000000000000000000000000000000000006001600160a01b03163385611dca565b610ef88a88612349565b897f1d7f9b884cc43b9a5c67bd7c6f6fb5ddb8cb3eb3994e934e8448d7bf4a4a25c987604051610f2a91815260200190565b60405180910390a250505050505050505061081a6001600055565b610f4d611c1a565b336000908152600660205260409020600181015480610f6b57600080fd5b60006001830155610fa67f00000000000000000000000000000000000000000000000000000000000000006001600160a01b03163383611dca565b5050610d286001600055565b610fba611c1a565b6000818152600560205260409020610fd56007820184612455565b610fde57600080fd5b6001600160a01b038316600090815260068201602052604090205460028201805461ffff60a01b191661ffff909216600160a01b029190911790556110266007820184612477565b50611031818361201b565b61103c8282856120f3565b506109016001600055565b61104f611e2d565b611057611c1a565b600081815260056020526040902080548291906001600160a01b03166110935760405163304e04d560e21b8152600481018390526024016105ef565b60018101546001600160a01b0316156110c257604051639dd8e45560e01b8152600481018390526024016105ef565b8054336001600160a01b03909116036110db57336105ce565b60008381526005602052604090206003810154348111156110fb57600080fd5b60007f00000000000000000000000000000000000000000000000000000000000000009050806001600160a01b031663d0e30db0836040518263ffffffff1660e01b81526004016000604051808303818588803b15801561115b57600080fd5b505af115801561116f573d6000803e3d6000fd5b505050505061117e838761201b565b6111898684336120f3565b505050505061081a6001600055565b6004546201000090046001600160a01b0316336001600160a01b0316146111bf57336105ce565b60078260ff16101580156111d6575060ff8160ff16105b6112225760405162461bcd60e51b815260206004820152601860248201527f706172616d7320617265206f7574206f6620626f756e6473000000000000000060448201526064016105ef565b6002805461ffff60c01b1916600160c01b60ff85811691820260ff60c81b191692909217600160c81b928516928302179092556040805192835260208301919091527f645889cf9ec240107adc65fb590a26518a06858b148e1439d94e781d2ce7549a91015b60405180910390a15050565b61129c611e2d565b6112a4611c1a565b600081815260056020908152604080832033845260068101909252822054909161ffff9091169081900361130e5761130e3360038401546001600160a01b037f00000000000000000000000000000000000000000000000000000000000000001691903090611fdd565b611319848484611e73565b50506109016001600055565b6004546201000090046001600160a01b0316336001600160a01b03161461134c57336105ce565b60018261ffff1610158015611367575061271061ffff831611155b6113c55760405162461bcd60e51b815260206004820152602960248201527f6d696e696d756d20696e74657265737420706172616d7320617265206f7574206044820152686f6620626f756e647360b81b60648201526084016105ef565b633b9aca008110156114195760405162461bcd60e51b815260206004820152601f60248201527f6d696e696d756d20626f72726f77206973206e6f7420696e20626f756e64730060448201526064016105ef565b6004805461ffff191661ffff8416908117909155600382905560408051918252602082018390527fd7e780227e472d3fe651a4d98e9656a02629e2728863be525ef4c4bb01e3fb989101611288565b6004546201000090046001600160a01b0316336001600160a01b03161461148f57336105ce565b6001600160a01b0381166114b55760405162461bcd60e51b81526004016105ef90612c45565b600280546001600160a01b0319166001600160a01b0392909216919091179055565b6114df611e2d565b6004546201000090046001600160a01b0316336001600160a01b03161461150657336105ce565b610d2861248c565b611516612226565b6004546201000090046001600160a01b0316336001600160a01b03161461153d57336105ce565b7f00000000000000000000000000000000000000000000000000000000000000006001600160a01b0316816001600160a01b0316036115be5760405162461bcd60e51b815260206004820152601860248201527f574554482063616e6e6f74206265207265636f7665726564000000000000000060448201526064016105ef565b6001600160a01b0381166116b457478061160f5760405162461bcd60e51b8152602060048201526012602482015271045746865722062616c616e636520697320360741b60448201526064016105ef565b6004546040516000916201000090046001600160a01b03169083908381818185875af1925050503d8060008114611662576040519150601f19603f3d011682016040523d82523d6000602084013e611667565b606091505b50509050806116af5760405162461bcd60e51b81526020600482015260146024820152732330b4b632b2103a379039b2b7321022ba3432b960611b60448201526064016105ef565b505050565b6040516370a0823160e01b815230600482015281906000906001600160a01b038316906370a0823190602401602060405180830381865afa1580156116fd573d6000803e3d6000fd5b505050506040513d601f19601f820116820180604052508101906117219190612c06565b90506116af6001600160a01b0383163383611dca565b6004546201000090046001600160a01b0316336001600160a01b03161461175e57336105ce565b6001600160a01b0381166117845760405162461bcd60e51b81526004016105ef90612c45565b600180546001600160a01b0390921661010002610100600160a81b0319909216919091179055565b6004546201000090046001600160a01b0316336001600160a01b0316146117d357336105ce565b60018261ffff16101580156117ed5750600a8261ffff1611155b6118455760405162461bcd60e51b8152602060048201526024808201527f73656375726974792066656520706172616d7320617265206f7574206f6620626044820152631bdd5b9960e21b60648201526084016105ef565b60018161ffff161015801561185f5750601e8161ffff1611155b6118b75760405162461bcd60e51b8152602060048201526024808201527f70726f746f636f6c2066656520706172616d7320617265206f7574206f6620626044820152631bdd5b9960e21b60648201526084016105ef565b6002805463ffffffff60a01b1916600160a01b61ffff85811691820261ffff60b01b191692909217600160b01b928516928302179092556040805192835260208301919091527fb95244055bdde969966c5fd58cb55549494f08b12a04cd76f7276e9548e6c7219101611288565b61192d611c1a565b60008181526005602052604090206119486007820133612455565b61195157600080fd5b61195e6007820133612477565b50336000818152600683810160209081526040808420805461ffff199081169091559282528084208785529091529091208054909116905560038201546119cf917f00000000000000000000000000000000000000000000000000000000000000006001600160a01b031691611dca565b604051339083907f86f86fc36b92095f40b93e930ed6b075c937c205ab08975a4594fc10eee7894290600090a35061081a6001600055565b611a0f611c1a565b600081815260056020526040902080548291906001600160a01b03163314611a3757336105ce565b60018101546001600160a01b031615611a6657604051639dd8e45560e01b8152600481018390526024016105ef565b6000838152600560205260409020611a7e818561201b565b611a888482612349565b60405184907f5519c9d789b31e2b6ac156a708c778b5b60f87b39472810962132384e982783890600090a250505061081a6001600055565b6004546201000090046001600160a01b0316336001600160a01b031614611ae757336105ce565b6001600160a01b038116611b0d5760405162461bcd60e51b81526004016105ef90612c45565b600480546001600160a01b03909216620100000262010000600160b01b0319909216919091179055565b6000818152600560205260408120611b4e816122c1565b9392505050565b6001600160a01b038116600090815260076020526040812060609190611b7a906124c7565b90508067ffffffffffffffff811115611b9557611b95612c74565b604051908082528060200260200182016040528015611bbe578160200160208202803683370190505b50915060005b81811015611c13576001600160a01b0384166000908152600760205260409020611bee90826124d1565b838281518110611c0057611c00612c8a565b6020908102919091010152600101611bc4565b5050919050565b600260005403611c6c5760405162461bcd60e51b815260206004820152601f60248201527f5265656e7472616e637947756172643a207265656e7472616e742063616c6c0060448201526064016105ef565b6002600055565b60025460405162c93be760e21b81526001600160a01b03858116600483015260248201859052604482018490526000928392839283921690630324ef9c90606401606060405180830381865afa158015611cd1573d6000803e3d6000fd5b505050506040513d601f19601f82011682018060405250810190611cf59190612ca0565b919450925090506000611d088284612c1f565b600254909150611d45906001600160a01b037f00000000000000000000000000000000000000000000000000000000000000008116911683611dca565b60025460405163079fce6960e11b815260048101859052602481018490526001600160a01b038a8116604483015290911690630f3f9cd290606401600060405180830381600087803b158015611d9a57600080fd5b505af1158015611dae573d6000803e3d6000fd5b50959a9950505050505050505050565b6000611b4e83836124dd565b6040516001600160a01b0383166024820152604481018290526116af90849063a9059cbb60e01b906064015b60408051601f198184030181529190526020810180516001600160e01b03166001600160e01b0319909316929092179091526125d0565b60015460ff1615610d285760405162461bcd60e51b815260206004820152601060248201526f14185d5cd8589b194e881c185d5cd95960821b60448201526064016105ef565b60008281526005602052604090208054849184916001600160a01b0316611eb05760405163304e04d560e21b8152600481018390526024016105ef565b8054336001600160a01b0390911603611ec957336105ce565b60018101546001600160a01b031615611ef857604051639dd8e45560e01b8152600481018390526024016105ef565b60045461ffff908116908416108015611f16575061271061ffff8416115b15611f3a576040516331d1010560e01b815261ffff841660048201526024016105ef565b3360008181526006860160205260409020805461ffff191661ffff8916179055611f689060078601906126a5565b50336000818152600660209081526040808320898452825291829020805461ffff191661ffff8b16908117909155915191825287917f3e840c20c4b506b78335be90a9d95804cb950d4cce5c38eb8ef9edbd2b3bd5ff910160405180910390a3505050505050565b60606000611b4e836126ba565b6040516001600160a01b03808516602483015283166044820152606481018290526120159085906323b872dd60e01b90608401611df6565b50505050565b6000612029836007016124c7565b600384015490915060005b828110156120ec57600061204b60078701826124d1565b905061205a6007870182612477565b506001600160a01b0381166000908152600660209081526040808320888452918290528220805461ffff191690556001810180549192869261209d908490612c1f565b90915550506040518481526001600160a01b0383169087907fe6343e4ad2f1055c053530d62efb367f443af7dc1b3a9bb8a93cb9a1588ca9289060200160405180910390a35050600101612034565b5050505050565b6003820154600483015460009061210d9062015180612b71565b6121179042612c1f565b6002549091506000906127109061213990600160a01b900461ffff1685612b71565b6121439190612b88565b905060006121518285612c32565b600487018490554360058801556001870180546001600160a01b0319166001600160a01b038881169190911790915587549192506121b4917f00000000000000000000000000000000000000000000000000000000000000008216911683611dca565b600286015460408051600160a01b90920461ffff1682526020820185905243908201526001600160a01b0386169088907fbbea1249a387710cef1b9b770230af5aec248504ea9855ad53a36dbcbc0c48f99060600160405180910390a350505050505050565b6000611b4e8383612716565b60015460ff16610d285760405162461bcd60e51b815260206004820152601460248201527314185d5cd8589b194e881b9bdd081c185d5cd95960621b60448201526064016105ef565b612277612226565b6001805460ff191690557f5db9ee0a495bf2e6ff9c91a7834c1ba4fdd244a5e8aa4e537bd38aeae4b073aa335b6040516001600160a01b03909116815260200160405180910390a1565b600181015460009081906001600160a01b03166122de5792915050565b60038301546002840154600091612710916123049190600160a01b900461ffff16612b71565b61230e9190612b88565b9050600061231f62a0668083612b88565b905060008560050154436123339190612c32565b905061233f8183612b71565b9695505050505050565b60098101546000838152600560208190526040822080546001600160a01b0319908116825560018201805490911690556002810180546001600160b01b0319169055600381018390556004810183905590810182905590600782018181816123b1828261291f565b50505050600982016000905550506123ed83600760006123ce3390565b6001600160a01b03168152602081019190915260400160002090611dbe565b5060015460405163470cc4cf60e11b8152600481018390526101009091046001600160a01b031690638e19899e90602401600060405180830381600087803b15801561243857600080fd5b505af115801561244c573d6000803e3d6000fd5b50505050505050565b6001600160a01b03811660009081526001830160205260408120541515611b4e565b6000611b4e836001600160a01b0384166124dd565b612494611e2d565b6001805460ff1916811790557f62e78cea01bee320cd4e420270b5ea74000d11b0c9f74754ebdbfc544b05a258336122a4565b6000610929825490565b6000611b4e8383612765565b600081815260018301602052604081205480156125c6576000612501600183612c32565b855490915060009061251590600190612c32565b905081811461257a57600086600001828154811061253557612535612c8a565b906000526020600020015490508087600001848154811061255857612558612c8a565b6000918252602080832090910192909255918252600188019052604090208390555b855486908061258b5761258b612cce565b600190038181906000526020600020016000905590558560010160008681526020019081526020016000206000905560019350505050610929565b6000915050610929565b6000612625826040518060400160405280602081526020017f5361666545524332303a206c6f772d6c6576656c2063616c6c206661696c6564815250856001600160a01b031661278f9092919063ffffffff16565b90508051600014806126465750808060200190518101906126469190612ce4565b6116af5760405162461bcd60e51b815260206004820152602a60248201527f5361666545524332303a204552433230206f7065726174696f6e20646964206e6044820152691bdd081cdd58d8d9595960b21b60648201526084016105ef565b6000611b4e836001600160a01b038416612716565b60608160000180548060200260200160405190810160405280929190818152602001828054801561270a57602002820191906000526020600020905b8154815260200190600101908083116126f6575b50505050509050919050565b600081815260018301602052604081205461275d57508154600181810184556000848152602080822090930184905584548482528286019093526040902091909155610929565b506000610929565b600082600001828154811061277c5761277c612c8a565b9060005260206000200154905092915050565b606061279e84846000856127a6565b949350505050565b6060824710156128075760405162461bcd60e51b815260206004820152602660248201527f416464726573733a20696e73756666696369656e742062616c616e636520666f6044820152651c8818d85b1b60d21b60648201526084016105ef565b600080866001600160a01b031685876040516128239190612d2a565b60006040518083038185875af1925050503d8060008114612860576040519150601f19603f3d011682016040523d82523d6000602084013e612865565b606091505b509150915061287687838387612881565b979650505050505050565b606083156128f05782516000036128e9576001600160a01b0385163b6128e95760405162461bcd60e51b815260206004820152601d60248201527f416464726573733a2063616c6c20746f206e6f6e2d636f6e747261637400000060448201526064016105ef565b508161279e565b61279e83838151156129055781518083602001fd5b8060405162461bcd60e51b81526004016105ef9190612d46565b508054600082559060005260206000209081019061081a91905b8082111561294d5760008155600101612939565b5090565b60006020828403121561296357600080fd5b5035919050565b803561ffff8116811461297c57600080fd5b919050565b6000806040838503121561299457600080fd5b61299d8361296a565b946020939093013593505050565b80356001600160a01b038116811461297c57600080fd5b6000602082840312156129d457600080fd5b611b4e826129ab565b6020808252825182820181905260009190848201906040850190845b81811015612a15578351835292840192918401916001016129f9565b50909695505050505050565b803560ff8116811461297c57600080fd5b60008060008060008060a08789031215612a4b57600080fd5b612a54876129ab565b9550602087013567ffffffffffffffff80821115612a7157600080fd5b818901915089601f830112612a8557600080fd5b813581811115612a9457600080fd5b8a60208260051b8501011115612aa957600080fd5b60208301975080965050505060408701359250612ac860608801612a21565b9150612ad66080880161296a565b90509295509295509295565b60008060408385031215612af557600080fd5b61299d836129ab565b60008060408385031215612b1157600080fd5b612b1a83612a21565b9150612b2860208401612a21565b90509250929050565b60008060408385031215612b4457600080fd5b612b4d8361296a565b9150612b286020840161296a565b634e487b7160e01b600052601160045260246000fd5b808202811582820484141761092957610929612b5b565b600082612ba557634e487b7160e01b600052601260045260246000fd5b500490565b6001600160a01b03868116825260806020830181905282018590526000906001600160fb1b03861115612bdc57600080fd5b8560051b808860a0860137604084019590955292909216606082015290910160a001949350505050565b600060208284031215612c1857600080fd5b5051919050565b8082018082111561092957610929612b5b565b8181038181111561092957610929612b5b565b6020808252601590820152741059191c995cdcc80c081b9bdd08185b1b1bddd959605a1b604082015260600190565b634e487b7160e01b600052604160045260246000fd5b634e487b7160e01b600052603260045260246000fd5b600080600060608486031215612cb557600080fd5b8351925060208401519150604084015190509250925092565b634e487b7160e01b600052603160045260246000fd5b600060208284031215612cf657600080fd5b81518015158114611b4e57600080fd5b60005b83811015612d21578181015183820152602001612d09565b50506000910152565b60008251612d3c818460208701612d06565b9190910192915050565b6020815260008251806020840152612d65816040850160208701612d06565b601f01601f1916919091016040019291505056fea2646970667358221220db51f3d82b72b65bae4fd237e697286740f67532ce59fe6e9ed6bc0f52c56f4864736f6c63430008180033",
  "devdoc": {
    "events": {
      "Paused(address)": {
        "details": "Emitted when the pause is triggered by `account`."
      },
      "Unpaused(address)": {
        "details": "Emitted when the pause is lifted by `account`."
      }
    },
    "kind": "dev",
    "methods": {
      "paused()": {
        "details": "Returns true if the contract is paused, and false otherwise."
      }
    },
    "version": 1
  },
  "userdoc": {
    "kind": "user",
    "methods": {},
    "version": 1
  },
  "storageLayout": {
    "storage": [
      {
        "astId": 231,
        "contract": "contracts/p2plending.sol:P2PLending",
        "label": "_status",
        "offset": 0,
        "slot": "0",
        "type": "t_uint256"
      },
      {
        "astId": 130,
        "contract": "contracts/p2plending.sol:P2PLending",
        "label": "_paused",
        "offset": 0,
        "slot": "1",
        "type": "t_bool"
      },
      {
        "astId": 2605,
        "contract": "contracts/p2plending.sol:P2PLending",
        "label": "TokenLocker",
        "offset": 1,
        "slot": "1",
        "type": "t_contract(ITokenLocker)2562"
      },
      {
        "astId": 2611,
        "contract": "contracts/p2plending.sol:P2PLending",
        "label": "Protocol",
        "offset": 0,
        "slot": "2",
        "type": "t_contract(IProtocol)2533"
      },
      {
        "astId": 2614,
        "contract": "contracts/p2plending.sol:P2PLending",
        "label": "securityFee",
        "offset": 20,
        "slot": "2",
        "type": "t_uint16"
      },
      {
        "astId": 2617,
        "contract": "contracts/p2plending.sol:P2PLending",
        "label": "protocolFee",
        "offset": 22,
        "slot": "2",
        "type": "t_uint16"
      },
      {
        "astId": 2620,
        "contract": "contracts/p2plending.sol:P2PLending",
        "label": "minExpiryDay",
        "offset": 24,
        "slot": "2",
        "type": "t_uint8"
      },
      {
        "astId": 2623,
        "contract": "contracts/p2plending.sol:P2PLending",
        "label": "maxExpiryDay",
        "offset": 25,
        "slot": "2",
        "type": "t_uint8"
      },
      {
        "astId": 2626,
        "contract": "contracts/p2plending.sol:P2PLending",
        "label": "minBorrowAmount",
        "offset": 0,
        "slot": "3",
        "type": "t_uint256"
      },
      {
        "astId": 2632,
        "contract": "contracts/p2plending.sol:P2PLending",
        "label": "minInterest",
        "offset": 0,
        "slot": "4",
        "type": "t_uint16"
      },
      {
        "astId": 2634,
        "contract": "contracts/p2plending.sol:P2PLending",
        "label": "admin",
        "offset": 2,
        "slot": "4",
        "type": "t_address"
      },
      {
        "astId": 2811,
        "contract": "contracts/p2plending.sol:P2PLending",
        "label": "borrowContract",
        "offset": 0,
        "slot": "5",
        "type": "t_mapping(t_bytes32,t_struct(LoanContract)2799_storage)"
      },
      {
        "astId": 2816,
        "contract": "contracts/p2plending.sol:P2PLending",
        "label": "bids",
        "offset": 0,
        "slot": "6",
        "type": "t_mapping(t_address,t_struct(UserBids)2806_storage)"
      },
      {
        "astId": 2821,
        "contract": "contracts/p2plending.sol:P2PLending",
        "label": "userLoanIds",
        "offset": 0,
        "slot": "7",
        "type": "t_mapping(t_address,t_struct(Bytes32Set)2080_storage)"
      }
    ],
    "types": {
      "t_address": {
        "encoding": "inplace",
        "label": "address",
        "numberOfBytes": "20"
      },
      "t_array(t_bytes32)dyn_storage": {
        "base": "t_bytes32",
        "encoding": "dynamic_array",
        "label": "bytes32[]",
        "numberOfBytes": "32"
      },
      "t_bool": {
        "encoding": "inplace",
        "label": "bool",
        "numberOfBytes": "1"
      },
      "t_bytes32": {
        "encoding": "inplace",
        "label": "bytes32",
        "numberOfBytes": "32"
      },
      "t_contract(IProtocol)2533": {
        "encoding": "inplace",
        "label": "contract IProtocol",
        "numberOfBytes": "20"
      },
      "t_contract(ITokenLocker)2562": {
        "encoding": "inplace",
        "label": "contract ITokenLocker",
        "numberOfBytes": "20"
      },
      "t_mapping(t_address,t_struct(Bytes32Set)2080_storage)": {
        "encoding": "mapping",
        "key": "t_address",
        "label": "mapping(address => struct EnumerableSet.Bytes32Set)",
        "numberOfBytes": "32",
        "value": "t_struct(Bytes32Set)2080_storage"
      },
      "t_mapping(t_address,t_struct(UserBids)2806_storage)": {
        "encoding": "mapping",
        "key": "t_address",
        "label": "mapping(address => struct P2PLending.UserBids)",
        "numberOfBytes": "32",
        "value": "t_struct(UserBids)2806_storage"
      },
      "t_mapping(t_address,t_uint16)": {
        "encoding": "mapping",
        "key": "t_address",
        "label": "mapping(address => uint16)",
        "numberOfBytes": "32",
        "value": "t_uint16"
      },
      "t_mapping(t_bytes32,t_struct(LoanContract)2799_storage)": {
        "encoding": "mapping",
        "key": "t_bytes32",
        "label": "mapping(bytes32 => struct P2PLending.LoanContract)",
        "numberOfBytes": "32",
        "value": "t_struct(LoanContract)2799_storage"
      },
      "t_mapping(t_bytes32,t_uint16)": {
        "encoding": "mapping",
        "key": "t_bytes32",
        "label": "mapping(bytes32 => uint16)",
        "numberOfBytes": "32",
        "value": "t_uint16"
      },
      "t_mapping(t_bytes32,t_uint256)": {
        "encoding": "mapping",
        "key": "t_bytes32",
        "label": "mapping(bytes32 => uint256)",
        "numberOfBytes": "32",
        "value": "t_uint256"
      },
      "t_struct(AddressSet)2201_storage": {
        "encoding": "inplace",
        "label": "struct EnumerableSet.AddressSet",
        "members": [
          {
            "astId": 2200,
            "contract": "contracts/p2plending.sol:P2PLending",
            "label": "_inner",
            "offset": 0,
            "slot": "0",
            "type": "t_struct(Set)1886_storage"
          }
        ],
        "numberOfBytes": "64"
      },
      "t_struct(Bytes32Set)2080_storage": {
        "encoding": "inplace",
        "label": "struct EnumerableSet.Bytes32Set",
        "members": [
          {
            "astId": 2079,
            "contract": "contracts/p2plending.sol:P2PLending",
            "label": "_inner",
            "offset": 0,
            "slot": "0",
            "type": "t_struct(Set)1886_storage"
          }
        ],
        "numberOfBytes": "64"
      },
      "t_struct(LoanContract)2799_storage": {
        "encoding": "inplace",
        "label": "struct P2PLending.LoanContract",
        "members": [
          {
            "astId": 2777,
            "contract": "contracts/p2plending.sol:P2PLending",
            "label": "borrower",
            "offset": 0,
            "slot": "0",
            "type": "t_address"
          },
          {
            "astId": 2779,
            "contract": "contracts/p2plending.sol:P2PLending",
            "label": "lender",
            "offset": 0,
            "slot": "1",
            "type": "t_address"
          },
          {
            "astId": 2781,
            "contract": "contracts/p2plending.sol:P2PLending",
            "label": "collection",
            "offset": 0,
            "slot": "2",
            "type": "t_address"
          },
          {
            "astId": 2783,
            "contract": "contracts/p2plending.sol:P2PLending",
            "label": "interest",
            "offset": 20,
            "slot": "2",
            "type": "t_uint16"
          },
          {
            "astId": 2785,
            "contract": "contracts/p2plending.sol:P2PLending",
            "label": "amount",
            "offset": 0,
            "slot": "3",
            "type": "t_uint256"
          },
          {
            "astId": 2787,
            "contract": "contracts/p2plending.sol:P2PLending",
            "label": "expiry",
            "offset": 0,
            "slot": "4",
            "type": "t_uint256"
          },
          {
            "astId": 2789,
            "contract": "contracts/p2plending.sol:P2PLending",
            "label": "checkPointBlock",
            "offset": 0,
            "slot": "5",
            "type": "t_uint256"
          },
          {
            "astId": 2793,
            "contract": "contracts/p2plending.sol:P2PLending",
            "label": "bids",
            "offset": 0,
            "slot": "6",
            "type": "t_mapping(t_address,t_uint16)"
          },
          {
            "astId": 2796,
            "contract": "contracts/p2plending.sol:P2PLending",
            "label": "bidders",
            "offset": 0,
            "slot": "7",
            "type": "t_struct(AddressSet)2201_storage"
          },
          {
            "astId": 2798,
            "contract": "contracts/p2plending.sol:P2PLending",
            "label": "lockId",
            "offset": 0,
            "slot": "9",
            "type": "t_bytes32"
          }
        ],
        "numberOfBytes": "320"
      },
      "t_struct(Set)1886_storage": {
        "encoding": "inplace",
        "label": "struct EnumerableSet.Set",
        "members": [
          {
            "astId": 1881,
            "contract": "contracts/p2plending.sol:P2PLending",
            "label": "_values",
            "offset": 0,
            "slot": "0",
            "type": "t_array(t_bytes32)dyn_storage"
          },
          {
            "astId": 1885,
            "contract": "contracts/p2plending.sol:P2PLending",
            "label": "_indexes",
            "offset": 0,
            "slot": "1",
            "type": "t_mapping(t_bytes32,t_uint256)"
          }
        ],
        "numberOfBytes": "64"
      },
      "t_struct(UserBids)2806_storage": {
        "encoding": "inplace",
        "label": "struct P2PLending.UserBids",
        "members": [
          {
            "astId": 2803,
            "contract": "contracts/p2plending.sol:P2PLending",
            "label": "proposedInterest",
            "offset": 0,
            "slot": "0",
            "type": "t_mapping(t_bytes32,t_uint16)"
          },
          {
            "astId": 2805,
            "contract": "contracts/p2plending.sol:P2PLending",
            "label": "withdrawableBids",
            "offset": 0,
            "slot": "1",
            "type": "t_uint256"
          }
        ],
        "numberOfBytes": "64"
      },
      "t_uint16": {
        "encoding": "inplace",
        "label": "uint16",
        "numberOfBytes": "2"
      },
      "t_uint256": {
        "encoding": "inplace",
        "label": "uint256",
        "numberOfBytes": "32"
      },
      "t_uint8": {
        "encoding": "inplace",
        "label": "uint8",
        "numberOfBytes": "1"
      }
    }
  }
}