{
  "address": "0xC536FC545a4D826BF03ebB4231B91373DC8A0eD5",
  "abi": [
    {
      "inputs": [
        {
          "internalType": "address",
          "name": "_Protocol",
          "type": "address"
        }
      ],
      "stateMutability": "nonpayable",
      "type": "constructor"
    },
    {
      "inputs": [
        {
          "internalType": "address",
          "name": "caller",
          "type": "address"
        }
      ],
      "name": "Unauthorized",
      "type": "error"
    },
    {
      "anonymous": false,
      "inputs": [
        {
          "indexed": true,
          "internalType": "bytes32",
          "name": "lockId",
          "type": "bytes32"
        },
        {
          "indexed": true,
          "internalType": "address",
          "name": "user",
          "type": "address"
        },
        {
          "indexed": true,
          "internalType": "address",
          "name": "protocol",
          "type": "address"
        },
        {
          "indexed": false,
          "internalType": "address",
          "name": "collection",
          "type": "address"
        },
        {
          "indexed": false,
          "internalType": "uint256[]",
          "name": "tokens",
          "type": "uint256[]"
        },
        {
          "indexed": false,
          "internalType": "uint256",
          "name": "lockPeriod",
          "type": "uint256"
        }
      ],
      "name": "Deposit",
      "type": "event"
    },
    {
      "anonymous": false,
      "inputs": [
        {
          "indexed": false,
          "internalType": "bytes32",
          "name": "lockId",
          "type": "bytes32"
        },
        {
          "indexed": false,
          "internalType": "address",
          "name": "recipient",
          "type": "address"
        }
      ],
      "name": "Liquidate",
      "type": "event"
    },
    {
      "anonymous": false,
      "inputs": [
        {
          "indexed": true,
          "internalType": "bytes32",
          "name": "lockId",
          "type": "bytes32"
        }
      ],
      "name": "Withdraw",
      "type": "event"
    },
    {
      "inputs": [],
      "name": "Protocol",
      "outputs": [
        {
          "internalType": "contract IProtocol",
          "name": "",
          "type": "address"
        }
      ],
      "stateMutability": "view",
      "type": "function"
    },
    {
      "inputs": [],
      "name": "admin",
      "outputs": [
        {
          "internalType": "address",
          "name": "",
          "type": "address"
        }
      ],
      "stateMutability": "view",
      "type": "function"
    },
    {
      "inputs": [
        {
          "internalType": "address",
          "name": "_collection",
          "type": "address"
        },
        {
          "internalType": "uint256[]",
          "name": "_tokens",
          "type": "uint256[]"
        },
        {
          "internalType": "uint256",
          "name": "_unlock",
          "type": "uint256"
        },
        {
          "internalType": "address",
          "name": "_ownerOf",
          "type": "address"
        }
      ],
      "name": "deposit",
      "outputs": [
        {
          "internalType": "bytes32",
          "name": "lockId",
          "type": "bytes32"
        }
      ],
      "stateMutability": "nonpayable",
      "type": "function"
    },
    {
      "inputs": [
        {
          "internalType": "address",
          "name": "locker",
          "type": "address"
        }
      ],
      "name": "getLockedIds",
      "outputs": [
        {
          "internalType": "bytes32[]",
          "name": "_lockIds",
          "type": "bytes32[]"
        }
      ],
      "stateMutability": "view",
      "type": "function"
    },
    {
      "inputs": [
        {
          "internalType": "bytes32",
          "name": "_id",
          "type": "bytes32"
        }
      ],
      "name": "getLockedTokensData",
      "outputs": [
        {
          "components": [
            {
              "internalType": "address",
              "name": "owner",
              "type": "address"
            },
            {
              "internalType": "address",
              "name": "collection",
              "type": "address"
            },
            {
              "internalType": "uint256[]",
              "name": "tokens",
              "type": "uint256[]"
            },
            {
              "internalType": "uint256",
              "name": "lockTime",
              "type": "uint256"
            }
          ],
          "internalType": "struct TokenLockerContract.LockedTokens",
          "name": "lockTokens",
          "type": "tuple"
        }
      ],
      "stateMutability": "view",
      "type": "function"
    },
    {
      "inputs": [
        {
          "internalType": "bytes32",
          "name": "_lockId",
          "type": "bytes32"
        },
        {
          "internalType": "address",
          "name": "_recipient",
          "type": "address"
        }
      ],
      "name": "liquidate",
      "outputs": [],
      "stateMutability": "nonpayable",
      "type": "function"
    },
    {
      "inputs": [
        {
          "internalType": "address",
          "name": "",
          "type": "address"
        },
        {
          "internalType": "address",
          "name": "",
          "type": "address"
        },
        {
          "internalType": "uint256",
          "name": "",
          "type": "uint256"
        },
        {
          "internalType": "bytes",
          "name": "",
          "type": "bytes"
        }
      ],
      "name": "onERC721Received",
      "outputs": [
        {
          "internalType": "bytes4",
          "name": "",
          "type": "bytes4"
        }
      ],
      "stateMutability": "nonpayable",
      "type": "function"
    },
    {
      "inputs": [
        {
          "internalType": "uint256",
          "name": "tokenId",
          "type": "uint256"
        },
        {
          "internalType": "address",
          "name": "collectionAddress",
          "type": "address"
        }
      ],
      "name": "recueWithdraw",
      "outputs": [],
      "stateMutability": "nonpayable",
      "type": "function"
    },
    {
      "inputs": [
        {
          "internalType": "address",
          "name": "_newAdmin",
          "type": "address"
        }
      ],
      "name": "updateAdmin",
      "outputs": [],
      "stateMutability": "nonpayable",
      "type": "function"
    },
    {
      "inputs": [
        {
          "internalType": "address",
          "name": "_Protocol",
          "type": "address"
        }
      ],
      "name": "updateProtocol",
      "outputs": [],
      "stateMutability": "nonpayable",
      "type": "function"
    },
    {
      "inputs": [
        {
          "internalType": "bytes32",
          "name": "_lockId",
          "type": "bytes32"
        }
      ],
      "name": "withdraw",
      "outputs": [],
      "stateMutability": "nonpayable",
      "type": "function"
    }
  ],
  "transactionHash": "0xa2fa1c0ca0d08eedc1a145a290bc7d86272c51fe981b31014382d58e1de026ab",
  "args": [
    "0x8c193BA4E30B866cae2F79bd312f8fEB1cD09919"
  ],
  "numDeployments": 1,
  "solcInputHash": "f8720db7e1a4c7bd2d6afc66daf555c8",
  "bytecode": "0x608060405234801561001057600080fd5b506040516113a93803806113a983398101604081905261002f91610062565b60016000819055600280546001600160a01b039093166001600160a01b0319938416179055805490911633179055610092565b60006020828403121561007457600080fd5b81516001600160a01b038116811461008b57600080fd5b9392505050565b611308806100a16000396000f3fe608060405234801561001057600080fd5b50600436106100a95760003560e01c8063771b51d211610071578063771b51d2146101575780638e19899e1461016a5780639871e2221461017d57806398fe20af1461019d578063e2f273bd146101c8578063f851a440146101db57600080fd5b806303d7a861146100ae57806310c67d19146100c3578063150b7a02146100ec5780636af5ccbd14610123578063727a573c14610144575b600080fd5b6100c16100bc366004610e5a565b6101ee565b005b6100d66100d1366004610e8a565b61027e565b6040516100e39190610ea3565b60405180910390f35b61010a6100fa366004610f68565b630a85bd0160e11b949350505050565b6040516001600160e01b031990911681526020016100e3565b61013661013136600461102c565b610353565b6040519081526020016100e3565b6100c16101523660046110d3565b6105e4565b6100c1610165366004610e5a565b61064d565b6100c1610178366004610e8a565b6107c1565b61019061018b3660046110d3565b610953565b6040516100e391906110f7565b6002546101b0906001600160a01b031681565b6040516001600160a01b0390911681526020016100e3565b6100c16101d63660046110d3565b610a18565b6001546101b0906001600160a01b031681565b6101f6610a5b565b806001600160a01b0381166342842e0e30336040516001600160e01b031960e085901b1681526001600160a01b0392831660048201529116602482015260448101869052606401600060405180830381600087803b15801561025757600080fd5b505af115801561026b573d6000803e3d6000fd5b505050505061027a6001600055565b5050565b6102bb604051806080016040528060006001600160a01b0316815260200160006001600160a01b0316815260200160608152602001600081525090565b600082815260036020908152604091829020825160808101845281546001600160a01b039081168252600183015416818401526002820180548551818602810186018752818152929593949386019383018282801561033957602002820191906000526020600020905b815481526020019060010190808311610325575b505050505081526020016003820154815250509050919050565b600061035d610a5b565b60025460405163378d616760e11b81526001600160a01b0380891660048301528892600092911690636f1ac2ce90602401602060405180830381865afa1580156103ab573d6000803e3d6000fd5b505050506040513d601f19601f820116820180604052508101906103cf919061113b565b516001600160a01b0316036103e357600080fd5b846103ed57600080fd5b828787878743604051602001610408969594939291906111b9565b60405160208183030381529060405280519060200120915061044e826004600061042f3390565b6001600160a01b03168152602081019190915260400160002090610ab4565b506000828152600360205260408120600254909190819081906001600160a01b0316637ed6a406336040516001600160e01b031960e084901b1681526001600160a01b039091166004820152602401602060405180830381865afa1580156104ba573d6000803e3d6000fd5b505050506040513d601f19601f820116820180604052508101906104de91906111fb565b905080156104ee5733915061052b565b60078810156104fc57600080fd5b6001600160a01b038716331461051157600080fd5b61051e8862015180611233565b610528904261124a565b92505b6105378b8b8b8a610ac9565b6001840180546001600160a01b03808e166001600160a01b03199283161790925585549189169116178455610570600285018b8b610dcb565b50828460030181905550816001600160a01b0316876001600160a01b0316877fb6739312b768eda3c8cad2bf7f3333300dfff714ad6fc5c7fc365c61522843498e8e8e896040516105c4949392919061125d565b60405180910390a450505050506105db6001600055565b95945050505050565b6001546001600160a01b0316336001600160a01b03161461062b57335b60405163472511eb60e11b81526001600160a01b0390911660048201526024015b60405180910390fd5b600280546001600160a01b0319166001600160a01b0392909216919091179055565b610655610a5b565b6002546000906001600160a01b0316637ed6a406336040516001600160e01b031960e084901b1681526001600160a01b039091166004820152602401602060405180830381865afa1580156106ae573d6000803e3d6000fd5b505050506040513d601f19601f820116820180604052508101906106d291906111fb565b9050806106df5733610601565b60008381526003602052604090206001810154610709906001600160a01b03166002830185610b75565b6107328460046000335b6001600160a01b03168152602081019190915260400160002090610c25565b50600084815260036020526040812080546001600160a01b0319908116825560018201805490911690559061076a6002830182610e16565b50600060039190910155604080518581526001600160a01b03851660208201527f65bc529d9de8039c983710907481c7a26ecf5719812dd3cf43fac13d002d7aed910160405180910390a1505061027a6001600055565b6107c9610a5b565b33600090815260046020526040902081906107e49082610c31565b6107ed57600080fd5b6000828152600360205260408120805460025491926001600160a01b0391821692909116637ed6a406336040516001600160e01b031960e084901b1681526001600160a01b039091166004820152602401602060405180830381865afa15801561085b573d6000803e3d6000fd5b505050506040513d601f19601f8201168201806040525081019061087f91906111fb565b9050806108ac576001600160a01b038216331461089c5733610601565b826003015442116108ac57600080fd5b60018301546108c8906001600160a01b03166002850184610b75565b6108d6856004600033610713565b50600085815260036020526040812080546001600160a01b0319908116825560018201805490911690559061090e6002830182610e16565b50600060039190910181905560405186917fb038367bf72c9197d4f513be6ec7694358739492ca08fef497aac5dce4805e8e91a2505050506109506001600055565b50565b6001600160a01b03811660009081526004602052604081206060919061097890610c49565b90508067ffffffffffffffff81111561099357610993610f21565b6040519080825280602002602001820160405280156109bc578160200160208202803683370190505b50915060005b81811015610a11576001600160a01b03841660009081526004602052604090206109ec9082610c53565b8382815181106109fe576109fe611293565b60209081029190910101526001016109c2565b5050919050565b6001546001600160a01b0316336001600160a01b031614610a395733610601565b600180546001600160a01b0319166001600160a01b0392909216919091179055565b600260005403610aad5760405162461bcd60e51b815260206004820152601f60248201527f5265656e7472616e637947756172643a207265656e7472616e742063616c6c006044820152606401610622565b6002600055565b6000610ac08383610c5f565b90505b92915050565b838260005b81811015610b6c576000868683818110610aea57610aea611293565b604051632142170760e11b81526001600160a01b038981166004830152306024830152602090920293909301356044840181905293508616916342842e0e9150606401600060405180830381600087803b158015610b4757600080fd5b505af1158015610b5b573d6000803e3d6000fd5b505060019093019250610ace915050565b50505050505050565b8154839060005b81811015610c1d576000858281548110610b9857610b98611293565b600091825260209091200154604051632142170760e11b81523060048201526001600160a01b03878116602483015260448201839052919250908516906342842e0e90606401600060405180830381600087803b158015610bf857600080fd5b505af1158015610c0c573d6000803e3d6000fd5b505060019093019250610b7c915050565b505050505050565b6000610ac08383610cae565b60008181526001830160205260408120541515610ac0565b6000610ac3825490565b6000610ac08383610da1565b6000818152600183016020526040812054610ca657508154600181810184556000848152602080822090930184905584548482528286019093526040902091909155610ac3565b506000610ac3565b60008181526001830160205260408120548015610d97576000610cd26001836112a9565b8554909150600090610ce6906001906112a9565b9050818114610d4b576000866000018281548110610d0657610d06611293565b9060005260206000200154905080876000018481548110610d2957610d29611293565b6000918252602080832090910192909255918252600188019052604090208390555b8554869080610d5c57610d5c6112bc565b600190038181906000526020600020016000905590558560010160008681526020019081526020016000206000905560019350505050610ac3565b6000915050610ac3565b6000826000018281548110610db857610db8611293565b9060005260206000200154905092915050565b828054828255906000526020600020908101928215610e06579160200282015b82811115610e06578235825591602001919060010190610deb565b50610e12929150610e30565b5090565b508054600082559060005260206000209081019061095091905b5b80821115610e125760008155600101610e31565b6001600160a01b038116811461095057600080fd5b60008060408385031215610e6d57600080fd5b823591506020830135610e7f81610e45565b809150509250929050565b600060208284031215610e9c57600080fd5b5035919050565b602080825282516001600160a01b0390811683830152838201511660408084019190915283015160806060840152805160a0840181905260009291820190839060c08601905b80831015610f095783518252928401926001929092019190840190610ee9565b50606087015160808701528094505050505092915050565b634e487b7160e01b600052604160045260246000fd5b604051601f8201601f1916810167ffffffffffffffff81118282101715610f6057610f60610f21565b604052919050565b60008060008060808587031215610f7e57600080fd5b8435610f8981610e45565b9350602085810135610f9a81610e45565b935060408601359250606086013567ffffffffffffffff80821115610fbe57600080fd5b818801915088601f830112610fd257600080fd5b813581811115610fe457610fe4610f21565b610ff6601f8201601f19168501610f37565b9150808252898482850101111561100c57600080fd5b808484018584013760008482840101525080935050505092959194509250565b60008060008060006080868803121561104457600080fd5b853561104f81610e45565b9450602086013567ffffffffffffffff8082111561106c57600080fd5b818801915088601f83011261108057600080fd5b81358181111561108f57600080fd5b8960208260051b85010111156110a457600080fd5b6020830196508095505050506040860135915060608601356110c581610e45565b809150509295509295909350565b6000602082840312156110e557600080fd5b81356110f081610e45565b9392505050565b6020808252825182820181905260009190848201906040850190845b8181101561112f57835183529284019291840191600101611113565b50909695505050505050565b60006020828403121561114d57600080fd5b6040516020810181811067ffffffffffffffff8211171561117057611170610f21565b604052825161117e81610e45565b81529392505050565b81835260006001600160fb1b038311156111a057600080fd5b8260051b80836020870137939093016020019392505050565b6001600160a01b0387811682528616602082015260a0604082018190526000906111e69083018688611187565b60608301949094525060800152949350505050565b60006020828403121561120d57600080fd5b815180151581146110f057600080fd5b634e487b7160e01b600052601160045260246000fd5b8082028115828204841417610ac357610ac361121d565b80820180821115610ac357610ac361121d565b6001600160a01b03851681526060602082018190526000906112829083018587611187565b905082604083015295945050505050565b634e487b7160e01b600052603260045260246000fd5b81810381811115610ac357610ac361121d565b634e487b7160e01b600052603160045260246000fdfea2646970667358221220acbba9373dfd68e09388cf92fcaa01f59064d03511c2269d9a82dee5a77f049764736f6c63430008180033",
  "devdoc": {
    "kind": "dev",
    "methods": {
      "onERC721Received(address,address,uint256,bytes)": {
        "details": "See {IERC721Receiver-onERC721Received}. Always returns `IERC721Receiver.onERC721Received.selector`."
      }
    },
    "version": 1
  },
  "userdoc": {
    "kind": "user",
    "methods": {},
    "version": 1
  },
  "storageLayout": {
    "storage": [
      {
        "astId": 231,
        "contract": "contracts/TokenLocker.sol:TokenLockerContract",
        "label": "_status",
        "offset": 0,
        "slot": "0",
        "type": "t_uint256"
      },
      {
        "astId": 2559,
        "contract": "contracts/TokenLocker.sol:TokenLockerContract",
        "label": "admin",
        "offset": 0,
        "slot": "1",
        "type": "t_address"
      },
      {
        "astId": 2562,
        "contract": "contracts/TokenLocker.sol:TokenLockerContract",
        "label": "Protocol",
        "offset": 0,
        "slot": "2",
        "type": "t_contract(IProtocol)3235"
      },
      {
        "astId": 2623,
        "contract": "contracts/TokenLocker.sol:TokenLockerContract",
        "label": "lockedTokens",
        "offset": 0,
        "slot": "3",
        "type": "t_mapping(t_bytes32,t_struct(LockedTokens)2618_storage)"
      },
      {
        "astId": 2628,
        "contract": "contracts/TokenLocker.sol:TokenLockerContract",
        "label": "lockIds",
        "offset": 0,
        "slot": "4",
        "type": "t_mapping(t_address,t_struct(Bytes32Set)2125_storage)"
      }
    ],
    "types": {
      "t_address": {
        "encoding": "inplace",
        "label": "address",
        "numberOfBytes": "20"
      },
      "t_array(t_bytes32)dyn_storage": {
        "base": "t_bytes32",
        "encoding": "dynamic_array",
        "label": "bytes32[]",
        "numberOfBytes": "32"
      },
      "t_array(t_uint256)dyn_storage": {
        "base": "t_uint256",
        "encoding": "dynamic_array",
        "label": "uint256[]",
        "numberOfBytes": "32"
      },
      "t_bytes32": {
        "encoding": "inplace",
        "label": "bytes32",
        "numberOfBytes": "32"
      },
      "t_contract(IProtocol)3235": {
        "encoding": "inplace",
        "label": "contract IProtocol",
        "numberOfBytes": "20"
      },
      "t_mapping(t_address,t_struct(Bytes32Set)2125_storage)": {
        "encoding": "mapping",
        "key": "t_address",
        "label": "mapping(address => struct EnumerableSet.Bytes32Set)",
        "numberOfBytes": "32",
        "value": "t_struct(Bytes32Set)2125_storage"
      },
      "t_mapping(t_bytes32,t_struct(LockedTokens)2618_storage)": {
        "encoding": "mapping",
        "key": "t_bytes32",
        "label": "mapping(bytes32 => struct TokenLockerContract.LockedTokens)",
        "numberOfBytes": "32",
        "value": "t_struct(LockedTokens)2618_storage"
      },
      "t_mapping(t_bytes32,t_uint256)": {
        "encoding": "mapping",
        "key": "t_bytes32",
        "label": "mapping(bytes32 => uint256)",
        "numberOfBytes": "32",
        "value": "t_uint256"
      },
      "t_struct(Bytes32Set)2125_storage": {
        "encoding": "inplace",
        "label": "struct EnumerableSet.Bytes32Set",
        "members": [
          {
            "astId": 2124,
            "contract": "contracts/TokenLocker.sol:TokenLockerContract",
            "label": "_inner",
            "offset": 0,
            "slot": "0",
            "type": "t_struct(Set)1931_storage"
          }
        ],
        "numberOfBytes": "64"
      },
      "t_struct(LockedTokens)2618_storage": {
        "encoding": "inplace",
        "label": "struct TokenLockerContract.LockedTokens",
        "members": [
          {
            "astId": 2610,
            "contract": "contracts/TokenLocker.sol:TokenLockerContract",
            "label": "owner",
            "offset": 0,
            "slot": "0",
            "type": "t_address"
          },
          {
            "astId": 2612,
            "contract": "contracts/TokenLocker.sol:TokenLockerContract",
            "label": "collection",
            "offset": 0,
            "slot": "1",
            "type": "t_address"
          },
          {
            "astId": 2615,
            "contract": "contracts/TokenLocker.sol:TokenLockerContract",
            "label": "tokens",
            "offset": 0,
            "slot": "2",
            "type": "t_array(t_uint256)dyn_storage"
          },
          {
            "astId": 2617,
            "contract": "contracts/TokenLocker.sol:TokenLockerContract",
            "label": "lockTime",
            "offset": 0,
            "slot": "3",
            "type": "t_uint256"
          }
        ],
        "numberOfBytes": "128"
      },
      "t_struct(Set)1931_storage": {
        "encoding": "inplace",
        "label": "struct EnumerableSet.Set",
        "members": [
          {
            "astId": 1926,
            "contract": "contracts/TokenLocker.sol:TokenLockerContract",
            "label": "_values",
            "offset": 0,
            "slot": "0",
            "type": "t_array(t_bytes32)dyn_storage"
          },
          {
            "astId": 1930,
            "contract": "contracts/TokenLocker.sol:TokenLockerContract",
            "label": "_indexes",
            "offset": 0,
            "slot": "1",
            "type": "t_mapping(t_bytes32,t_uint256)"
          }
        ],
        "numberOfBytes": "64"
      },
      "t_uint256": {
        "encoding": "inplace",
        "label": "uint256",
        "numberOfBytes": "32"
      }
    }
  }
}